:020000040000FA
:0600000002010A021E4F7E
:03002B000222D0DE
:030033000222B2F4
:03003B000222E9B5
:0300430002226630
:03005300021EC2C8
:03006B0002228CE2
:10008300021D03E5C754F84401F5C77901220000B6
:100093000080FB120086B900030200F4E4792178A2
:1000A30008B800028004F709D8FCE479297802B87B
:1000B30000028004F709D8FCE4900281787C790976
:1000C3008002F0A3D8FCD9FA900AFCAA82AB8390F1
:1000D300013A78FB79038015E493A3AC82AD838A5C
:1000E300828B83F0A3AA82AB838C828D83D8E9D9D8
:1000F300E77582257583A5740312011C75829175BA
:100103008300740012011C75D00075813F7518813E
:10011300751902759F00020096C09FF59FE473D086
:100123009F22D083D082C09FE493C0E0740193C028
:10013300E0740293F59F22FF0000B400002800281A
:1001430000283075A000A000A000A000000800084F
:10015300E001F0001000100010001000100010006B
:1001630050005000500010001000D00700000000A5
:1001730000000F00010005003075070010000100AA
:1001830081FF0000FF320650063806FF0202020814
:10019300025000A0000000E8030275820100004D38
:1001A30082027182010000510B025782010000B2EA
:1001B30002027182010000520B025582010000C845
:1001C30002027182010000530B025382010000CA34
:1001D30002027182010000540B029D82080000CBD1
:1001E30002027182010000550B0267820100005672
:1001F3000BFF0100FF200275820100004A82027199
:1002030082010000BA0B027982000000000002594B
:100213008203000018030E0C0E0C0E0C0E0C0E0CB9
:100223000E0C0E0C0E0C0E0C0E0C0E0C0E0C0E0CFB
:100233008A0EA20E840EFFFF01E803053F10FF00A4
:1002430001307503020106000000000000000000F9
:10025300000000000000000000000000000000009B
:10026300000000FFFF0600800CE8031409496E63D9
:10027300682053697A6572202020202020202020C6
:10028300051250002003020A000201060302CCFFFC
:1002930053696D706C6520424C45205065726970DE
:1002A300686572616C5E1300006413024E6F6465CF
:1002B3003000024E6F64653100024E6F6465320098
:1002C300024E6F64653300024E6F64653400024E64
:1002D3006F64653500024E6F64653600024E6F64CD
:1002E300653700024E6F64653800024E6F646539EE
:1002F3000010537461727400024261747465727900
:1003030000027582010000508202718201000070B8
:100313000C028782010000E00A025B820100007187
:100323000C027182010000770C028982010000E255
:100333000A025B82010000780C0271820100007ED8
:100343000C028B82010000E40A025B820100007F41
:100353000C027182010000850C028D82010000E60F
:100363000A025B82010000860C0271820100008C8C
:100373000C028F82010000E80A025B820100008DFB
:100383000C027182010000930C029182010000EAC9
:100393000A025B82010000940C0271820100009A40
:1003A3000C029382010000EC0A025B820100009BB5
:1003B3000C027182010000A10C029582010000EE83
:1003C3000A025B82010000A20C027182010000A8F4
:1003D3000C029782010000F00A025B82010000A96F
:1003E3000C027182010000AF0C029982010000F23D
:1003F3000A025B82010000B00C027182010000B6A8
:100403000C029B82000000F40A025982030000F5EB
:100413000A025B82010000B70C027182010000BD79
:100423000C028182010000FB0A025B82010000BE14
:100433000C1201256E9803120125859803120125DC
:10044300B49803120125ED9803120125159903129F
:1004530001254399031201255A9903120125719924
:1004630003120125879903120125AE990312012571
:10047300C19903120125D79903120125EA990312A1
:1004830001250F9A0312012511A40212012510A5BB
:100493000212012545A50212012566A502120125B6
:1004A30076A50212012597A502120125A3A6021221
:1004B300012570A702120125E3A70212012569A8ED
:1004C30002120125ACA802120125E3A8021201259C
:1004D30069A9021201253BAA0212012599AA021257
:1004E3000125B1AA021201252BAB021201252EAB65
:1004F3000212012531AB02120125D8AB02120125EC
:10050300F0AB0212012520AC0212012540AC02120D
:1005130001252EAD02120125E4AD02120125E8E505
:100523000212012510E6021201253EE60212012500
:1005330075E602120125DDE60212012526E7021205
:10054300012571E702120125AFE702120125ECE74D
:10055300021201251AE802120125C1E8021201253F
:10056300CBE802120125D8E8021201250BE9021299
:100573000125CDE902120125D9E902120125F1E98C
:1005830002120125FBE9021201250EFF01120125CA
:100593001CFF0112012534FF011201254CFF01123A
:1005A3000125AFA5011201254DA601120125C5A6FE
:1005B30001120125DAA70112012514A80112012550
:1005C300BDA80112012592A901120125F6AA011263
:1005D30001254DAB01120125D4AB01120125BBACA2
:1005E3000112012508AD0112012596AD0112012565
:1005F300BAAD011201258FAF01120125D0AF01124F
:100603000125F2AF0112012573B0011201255DB17D
:100613000112012523B20112012541CE0212012547
:1006230013CF02120125BCCF02120125FFCF021204
:1006330001258CD00212012518D102120125F9D10E
:100643000212012528D20212012524D30212012508
:100653006CD3021201256ED402120125B2D4021208
:100663000125D8D40212012500A30312012552FB50
:100673000212012568FB021201258EFB02120125DD
:10068300B6FC02120125C0FC0212012519FE02125A
:10069300012519FF0212012518DC021201254DDD87
:1006A3000212012580DD02120125CADD0212012595
:1006B30088DF02120125529601120125B596011217
:1006C3000125FA97011201250A98011201252D9897
:1006D300011201257898011201251D9901120125A6
:1006E300139A01120125DD9A01120125559C01126D
:1006F3000125979C01120125359D01120125829D3B
:1007030001120125A89D01120125969F01120125C1
:100713009B9F011201257CA101120125D0A1011289
:10072300012532A2011201255AA201120125FEA2BE
:1007330001120125C0A301120125F1A30112012514
:10074300F4A3011201253CA4011201257EA4011288
:100753000125E5A4011201252790031201253A90F2
:10076300031201255390031201259E9003120125C4
:100773007991031201250892031201255392031262
:1007830001255C2300120125682300120125A12302
:1007930000120125E623001201259D2400120125E4
:1007A300232500120125882500120125B4250012F6
:1007B3000125ED2500120125012800120125DD295F
:1007C30000120125C82B00120125FF2C0012012560
:1007D3005F2F001201254B300012012591310012C9
:1007E30001259E3200120125BB3200120125F3328E
:1007F300001201250D330012012575330012012566
:100803000F3800120125B0380012012501390012FA
:100813000125283900120125763900120125943962
:1008230000120125E83900120125C13A0012012501
:10083300483C00120125D03C001201253EE1021282
:10084300012548E10212012513E2021201252EE2DD
:100853000212012554E20212012598E20212012537
:10086300D0E202120125F9E20212012572E302121B
:10087300012587E3021201259CE302120125D3E33C
:1008830002120125E7E30212012518E402120125F1
:1008930052E4021201257EE402120125D4E402127D
:1008A300012528E50212012571E5021201259BE5C8
:1008B30002120125C0E50212012566F70212012585
:1008C30030F80212012513F90212012589F90212E7
:1008D3000125CBF902120125F8FA02120125008045
:1008E30002120125298002120125428002120125EC
:1008F3008781021201256582021201258482021278
:100903000125118302120125548302120125A184BA
:1009130002120125408502120125BF87021201251B
:100923005688021201252A89021201250C8A021215
:100933000125788B021201250B8C02120125F29FEF
:10094300031201255BA003120125AFA003120125A9
:10095300D6A00312012590EA02120125FDEA021234
:10096300012548EB021201253DEC0212012539ED68
:100973000212012523EE021201254FAE02120125B8
:1009830091AE021201256BAF0212012544B002128F
:1009930001253FB1021201251EB2021201258AB2BE
:1009A3000212012551B302120125BCB30212012523
:1009B30023B4021201254EB402120125BFB4021260
:1009C300012552B502120125BBB502120125D0B58E
:1009D3000212012518B60212012531B602120125B1
:1009E30096B60212012599B6021201256B8A0312EB
:1009F3000125938A03120125D18A031201258F8BC6
:100A030003120125FA8B03120125168C031201250B
:100A13003E8C031201256E8C031201257D8C03127B
:100A23000125F78C031201251D8D03120125D6C262
:100A330001120125B3C401120125AEC6011201251D
:100A430081C701120125CCC70112012517C8011264
:100A5300012529C80112012569C8011201259EC873
:100A630001120125EAC80112012519C90112012544
:100A73003CC90112012589C90112012512CA0112BB
:100A830001251FCC011201250ACE011201254DCEED
:100A930001120125B2CF01120125F3CF0112012565
:100AA30066D001120125B2D001120125DDD0011259
:100AB3000125828C02120125AD8C0212012594932B
:100AC30002120125B895021201257397021201251E
:100AD300D09802120125373D00120125CE3D0012A8
:100AE3000125143E00120125533F00120125EA405F
:100AF300001201256441001201257F4100120125E6
:100B0300F441001201252343001201257E44001203
:100B13000125804500120125DD4600120125F64618
:100B23000012012553470012012535480012012503
:100B3300684800120125D8480012012552490012C5
:100B43000125A149001201256D4A00120125724BAE
:100B530000120125514C00120125DC4C0012012525
:100B63004A4D00120125BE4D00120125E74D00122A
:100B73000125A64E001201252050001201253D50EB
:100B8300001201255C5000120125ED5000120125D1
:100B93001251001201253A5100120125B5510012DC
:100BA30001250F5200120125635300120125205421
:100BB30000120125F3540012012507D1011201256A
:100BC30057D10112012563D10112012540D201122F
:100BD300012570D201120125A8D20112012527D3C4
:100BE300011201255FD301120125B1D301120125A1
:100BF300EED30112012513D6011201253FD80112AC
:100C030001253ADA0112012515DC01120125F77FCE
:100C130000120125A18201120125EB820112012597
:100C2300CA88011201254B8A01120125AA900112DB
:100C33000125A59101120125E291011201250592D9
:100C4300011201254792011201255092011201253B
:100C53005A92011201254693011201253A94011279
:100C63000125215500120125995F001201259F5F7F
:100C730000120125AB6600120125558703120125D9
:100C8300538803120125A98803120125E78803125B
:100C93000125448903120125C18903120125CA894B
:100CA30003120125D68903120125E98903120125BF
:100CB300258A031201253B8A03120125E5EE021260
:100CC3000125F2EE021201250CEF021201254BEF72
:100CD3000212012589EF02120125EEEF021201250E
:100CE30003F0021201250EF0021201251BF002127D
:100CF300012532F00212012540F0021201254BF0CA
:100D03000212012557F00212012566F00212012595
:100D130071F00212012594F0021201253DF1021235
:100D230001254DF10212012567F10212012584F11B
:100D330002120125A0F102120125C5F102120125BB
:100D4300CFF102120125E3F10212012502F2021290
:100D5300012563F20212012569F2021201256FF2E5
:100D63000212012575F20212012581F202120125F8
:100D7300B4F202120125DBDE011201255DDF01124F
:100D8300012506E0011201254EE1011201255CE374
:100D93000112012542E40112012577E40112012524
:100DA30099E40112012542E50112012512E701121E
:100DB30001253BE701120125B3E701120125E5E710
:100DC30001120125F2E7011201253DE80112012577
:100DD30061E801120125B2EA01120125BCEB0112FF
:100DE300012518EC0112012558B40112012569B53A
:100DF300011201254DB60112012557B60112012535
:100E030079B60112012585B60112012529B801120F
:100E1300012556B8011201256CB901120125C1B98A
:100E23000112012510BB01120125E5BB01120125A9
:100E330041BC01120125ACBC01120125E1BC011228
:100E4300012524BD01120125EEBF0112012506C0B3
:100E53000112012597C001120125A5C00112012528
:100E6300F2C00112012500C1011201256CC101125A
:100E73000125E7C1011201253EC201120125F398A4
:100E830002120125159902120125269B0212012542
:100E9300E59D021201250F9F02120125CD9F02122B
:100EA3000125B9A002120125B59603120125DA9690
:100EB3000312012550970312012524C702120125AD
:100EC3002DC70212012536C7021201250EC80212D0
:100ED3000125BFC902120125EFC9021201251ACA51
:100EE300021201254ACA0212012575CA02120125FE
:100EF300A9CA02120125D5CA0212012518CB021272
:100F0300012543CB021201258ACB02120125DFCB37
:100F13000212012521CC021201257BCC02120125EC
:100F2300A6CC02120125F5CC0212012525CD021211
:100F3300012550CD021201257ECD02120125A1CD3E
:100F43000212012589A303120125B5A3031201256A
:100F5300E2A303120125ECA303120125FCA3031250
:100F63000125F3BE02120125FDBE021201253EBF7B
:100F73000212012587BF02120125C1BF02120125FA
:100F830017C00212012538C002120125E7C202125E
:100F93000125F0C20212012544C3021201256DC3CB
:100FA3000212012577C302120125E5C302120125AE
:100FB30075C402120125D0C402120125FEC4021217
:100FC300012586C502120125C5C502120125FAC5F0
:100FD300021201250CC6021201252BC6021201259D
:100FE30034C602120125F6C60212012509A2031214
:100FF3000125C49403120125FA94031201252E95A9
:10100300031201257B960312012506A40312012571
:101013001CA40312012526A40312012570A40312A4
:10102300012531F30212012544F30212012508F4CC
:101033000212012547F40212012564F4021201256C
:101043009DF402120125EAF4021201251CF5021295
:10105300012553F502120125B99B03120125DC9BDF
:10106300031201250B9C03120125A39C03120125E6
:10107300BB9C03120125FD9C03120125EEA503125F
:101083000125CFA403120125666B00120125446DCF
:1010930000120125E36E001201258E6F0012012557
:1010A3000E7000120125937000120125BC7000120E
:1010B30001259774001201250E750012012525766E
:1010C300001201255F7600120125A076001201258A
:1010D300E777001201253D7800120125867800127A
:1010E3000125F57800120125617900120125927915
:1010F30000120125AA7900120125C37A00120125E5
:10110300D37A00120125897C00120125A07C0012EC
:101113000125D27C00120125747E00120125087F6F
:1011230000120125467F00120125577F0012012579
:1011330078A503120125B7A503120125E5FF0112C6
:10114300012523FF0212012533FF021201254BFF64
:1011530002120125B1FF0212012507A10312012585
:101163008CA103120125F0A103120125469D031250
:1011730001256F9D03120125DA9D031201252B9E84
:1011830003120125869E03120125658D0312012595
:101193007A8D03120125928E03120125068F031205
:1011A3000125208F03120125338F03120125418F5F
:1011B300031201255B8F03120125728F0312012590
:1011C3009C8F03120125F28F031201255EA60312E1
:1011D3000125008003120125908003120125198146
:1011E30003120125B581031201254682031201254D
:1011F300F68203120125048303120125828303125D
:101203000125958303120125AB8303120125B583C1
:1012130003120125C8830312012554F90112012584
:1012230029FA011201254AFA011201252FFB0112A5
:1012330001255BFB0112012593FB01120125B9FB7B
:1012430001120125CCFB0112012528FC0112012505
:101253004EFD011201255CFE011201256FFE0112F4
:101263000125C09E031201252E9F03120125399FDC
:1012730003120125499F03120125549F03120125DF
:10128300709F03120125219A03120125739A0312F9
:101293000125E69A03120125539B031201257D9232
:1012A30003120125A7920312012576930312012548
:1012B300529403120125BDB60212012589B7021209
:1012C3000125CAB70212012504B80212012562B82A
:1012D30002120125B6B80212012514B90212012522
:1012E300AAB902120125B2BA021201253CBC0212AC
:1012F3000125DABC0212012541BD0212012554BDAC
:101303000212012548BE0212012591BE02120125D7
:1013130065EC0112012597EF0112012528F1011255
:1013230001257FF1011201259CF1011201251CF217
:101333000112012598F30112012567F40112012519
:10134300D4F701120125BEF8011201254DD5021271
:10135300012591D502120125A8D9021201252ADA05
:101363000212012549DB021201254CDB0212012581
:10137300D0DB02120125CB83031201251084031253
:1013830001252D8403120125BF85031201259886AB
:10139300031201251C8703120125C1A50312012590
:1013A300BBFF0212012518A60312012540A603E084
:1013B30066701008A3E066700A08A3E0667004086C
:1013C300A3E06622C3E7960809E7960809E79608AB
:1013D30009E79622C3E09608A3E09608A3E09608DF
:1013E300A3E09622C008C3E096F50808A3E096425E
:1013F3000808A3E096420808A3E09645087001D3C5
:10140300D00822080808EAC0E0EBC0E086F0E7A4B1
:10141300FA180986F0E7A42AFA180986F0E7A42A3D
:10142300FA180986F0E7A42AFA1986F0E7A4FBE57F
:10143300F02AFA190886F0E7A42BFBE5F03AFA192B
:101443000886F0E7A42BFBE5F03AFA18180986F0B2
:10145300E7A4C5F02BFBE43AFA1908E7C5F0C6A4E4
:1014630026F6E5F03BFBE43AFA1886F0E7A4F6E546
:10147300F00826F6E43B08F6E43A08F6D0E0FBD0A1
:10148300E0FA22E4CFC0E0E4CEC0E0E4CDC0E0E483
:10149300CCC0E075F020C3E633F608E633F608E681
:1014A30033F608E633F6181818EC33FCED33FDEE8B
:1014B30033FEEF33FFC3EC9709ED9709EE9709EF7E
:1014C30097191919400FFFEC97FC09ED97FD09EEE9
:1014D30097FE191906D5F0BEECF709EDF709EEF7FB
:1014E30009EFF7191919D0E0FCD0E0FDD0E0FED0E8
:1014F300E0FF226016080808C6C313C618C613C641
:1015030018C613C618C613C6D5E0EA227009080820
:1015130008226016181818C6C333C608C633C6088F
:10152300C633C608C633C6D5E0EA22E627F608095D
:10153300E637F60809E637F60809E637F622E02625
:10154300F608A3E036F608A3E036F608A3E036F67D
:1015530022E026F008A3E036F008A3E036F008A363
:10156300E036F022C3E697F60809E697F60809E69F
:1015730097F60809E697F622C3E096F008A3E096EB
:10158300F008A3E096F008A3E096F022E056F608F0
:10159300A3E056F608A3E056F608A3E056F622E0C9
:1015A30056F008A3E056F008A3E056F008A3E0566F
:1015B300F022E0F608A3E0F608A3E0F608A3E0F6BD
:1015C30022E6F008A3E6F008A3E6F008A3E6F0227B
:1015D300E0FAA3E0FBA3E0FCA3E0FD22EAF0A3EB27
:1015E300F0A3ECF0A3EDF022CAC0E0E6F0A308DA22
:1015F300FAD0E0FA22CAC0E0E0A3C582CCC582C516
:1016030083CDC583F0A3C582CCC582C583CDC583F5
:10161300DAE6D0E0CA22C3E498F8E499F912165A3C
:101623008026C3E49AFAE49BFBE920E7E912165A01
:10163300E498F8E499F922C3E498F8E499F91216C6
:101643005AE498F8E499F9C3E49AFAE49BFB22EB91
:1016530020E7CFE920E7E0B90010BB0008E88AF0F3
:1016630084F8AAF022E4FBC8FA22EB70227B10C8AC
:1016730033C8C933C9335007C39AC3DBF280069A10
:1016830050012ADBEAC833F4C8C933F4C9FA227516
:10169300F008E4C833C8C933C933C99AC99B500495
:1016A300C92AC93BD5F0ECFBC833F4C8E4C9FA2214
:1016B300600D08C6A2E713C618C613C6D5E0F32209
:1016C300600C08C6C313C618C613C6D5E0F422704F
:1016D3000422600D18C6C333C608C633C6D5E0F46A
:1016E3001822251810AF08F518400215198008F5BF
:1016F3001840021519D2AF22C0D0251810AF08F533
:1017030018500205198008F51850020519D2AFD0F8
:10171300D0222518F58210AF08F51840021519805C
:1017230008F51840021519D2AF851983222518F53B
:1017330082E43519F58322E4732518C582C0E0E5F8
:101743001934FFC583C0E0E518C3958224F810AFB0
:10175300088583198582188008858319858218D2A4
:10176300AFCEF0A3E520F0A37808E608F0A3DEFAF5
:10177300EFF0A3E58124FAF8E608F0A3E608F0A366
:10178300E608F0A30808E608F0A3E608F0A315812D
:101793001581D0E0FED0E0F8158115811581E8C0F0
:1017A300E0EEC0E0222518C582C0E0E51934FFC58C
:1017B30083C0E0E518C3958224F910AF0885831927
:1017C3008582188008858319858218D2AFCEF0A34D
:1017D300E520F0A37808E608F0A3DEFAEFF0A3E52E
:1017E3008124FBF8E608F0A3E608F0A30808E6085E
:1017F300F0A3E608F0A315811581D0E0FED0E0F850
:1018030015811581E8C0E0EEC0E0228519838518B3
:1018130082E0A3FEE0A3F5207808E0A3F608DFFA50
:10182300E0A3FFE0A3C0E0E0A3C0E0E0A3C0E0E0EA
:10183300A3C0E0E0A3C0E010AF0885821885831938
:101843008008858218858319D2AFD083D0820201A4
:1018530022851983851882E0A3FEE0A3F52078088A
:10186300E0A3F608DFFAE0A3FFE0A3C0E0E0A3C033
:10187300E0E0A3C0E0E0A3C0E010AF0885821885D4
:1018830083198008858218858319D2AFD083D082CB
:1018930022C0D02518C582C0E0E51934FFC583C036
:1018A300E0E518C3958224F310AF08858319858278
:1018B300188008858319858218D2AFC8F0A3E9F090
:1018C300A3EAF0A3EBF0A37908E709F0A3D8FAECB5
:1018D300F0A3EDF0A3EEF0A3EFF0A3D0E0F0A3D0DC
:1018E300E0F0A3D0E0F0A3E520F0A3E5F0F0A3221D
:1018F300851983851882E0C0E0A3E0F9A3E0FAA389
:10190300E0FBA37808E0F608A3DFFAE0FCA3E0FD20
:10191300A3E0FEA3E0FFA3E0C0E0A3E0C0E0A3E0F8
:10192300F5D0A3E0F520A3E0A3F5F010AF0885837D
:10193300198582188008858319858218D2AFD082D1
:10194300D083D0E0F8D0E0327404800674028002C1
:101953007401C0E0F404121715D0E01215EB2274E1
:1019630004800474028000CCC0E0EDC0E0E518C33D
:101973009CCCAD1950011D10AF068C188D19800633
:101983008C188D19D2AF1215F8D0E0FDD0E0FC22EF
:10199300D083D082E9C0E0E493A3C386F0C5F09579
:1019A300F0F908E493A386F0C5F095F0700BE49387
:1019B300A3C3994005E9048002A3E475F002A425BA
:1019C30082F582E5F03583F583D0E0F9E493A3C093
:1019D300E0E493C0E022D083D082ECC0E0EDC0E02D
:1019E300E493A3FCE493A3FDED4C600D121A25ECE4
:1019F30024FFFCED34FFFD80EFE493A3FCE493A309
:101A0300FDED4C600D121A64EC24FFFCED34FFFD78
:101A130080EFD0E0FDD0E0FCE493A3C0E0E493C00A
:101A2300E022C0E0C3E49396087401939618400F34
:101A3300E49366700808740193661870007019A324
:101A4300A3C3E49396087401939618A3A3400DD0FF
:101A5300E0D0E0D0E0021A15A3A3A3A3A3A3D0E090
:101A630022C0E0C0F088F0E4936670080874019324
:101A730066187000A8F0A3A3700BD0F0D0E0D0E0FC
:0C1A8300D0E0021A15A3A3D0F0D0E0229E
:101A900074F51217A8EAFEEBFFEE2434F8EF3400D9
:101AA000F988088909EE2435F582EF3400F583E0E2
:101AB000F8EE2437F582EF3400F583E0F50AEC8583
:101AC0000AF0A4FCAAF0850AF0EDA42AFDE82CF89F
:101AD000E43DF97A257B0012165AEA8508828509C9
:101AE00083F05407F87401B800028004C333D8FCB3
:101AF000C0E0E0131313541FF8EE28F8EF3400F998
:101B0000E8245DF582E93400F583D0E0F8E0586020
:101B100008EE2434F582EF801EEE2436F582EF3491
:101B200000F583E0F5F0EA84A8F0EE28F8EF340041
:101B3000F9E82438F582E93400F583E0F97F0402FE
:101B4000185474F51217A8EAFEEBFFEE2434F58260
:101B5000EF3400F583E0C0E0EE2435F582EF340089
:101B6000F583D0E0F08E828F83A3A3A3A3A3A3A3C6
:101B7000C082C0838E828F83A3A3A3A3A3E0F8A314
:101B8000E0F9D083D082E0C398F508A3E099F50985
:101B9000EE2480F582EF3400F583E064017069EE95
:101BA0002481F582EF3400F583E0F8A3E0F98E821A
:101BB0008F83A3A3A3A3A3A3A3E0FCA3E0FD8E8232
:101BC0008F83A3A3A3A3A3E0FAA3E0FBC3EA9CEB48
:101BD0009D5027C3EC98ED99402EC3EA98EB99509D
:101BE000277CFD7D04EEFAEFFB120B6CEE2480F5F2
:101BF00082EF3400F583E4F0800EC3EA98EB99405D
:101C0000E0C3EC98ED9950D9EE2434F8EF3400F9A4
:101C1000E8FCE9FDEE2435F582EF3400F583E0F8C9
:101C2000EE2437F582EF3400F583E0F50AE5088508
:101C30000AF0A4F508AAF0850AF0E509A42AF50936
:101C4000E82508F8E43509F97A257B0012165AEAE6
:101C50008C828D83F05407F87401B800028004C3AD
:101C600033D8FCC0E0E0131313541FF8EE28F8EF4C
:101C70003400F9E8245DF582E93400F583D0E0F81A
:101C8000E0586008EE2434F582EF801EEE2436F52D
:101C900082EF3400F583E0F5F0EA84A8F0EE28F84E
:101CA000EF3400F9E82438F582E93400F583E0F9EF
:101CB000122258021B3DC082C08385188285198379
:101CC000E0F8A3E0F9C3EA9CEB9D5012C3EC98ED59
:101CD000994019C3EA98EB99501279018010C3EA30
:101CE00098EB9940F5C3EC98ED9950EE7900D083CC
:101CF000D08222EAC39CFAEB9DFB220085218785D6
:101D000022C622C0E0C0D0E8C0E0E9C0E0EAC0E0FE
:101D1000EBC0E0ECC0E0EDC0E0C008C009C00AC004
:101D20000BC082C083C0F0759B00906182E0A2E688
:101D30004003021DE1E591A2E64003021DE1759119
:101D4000BF9003C2E064057008120C98120CA480C6
:101D500003120C9E752100120CF8E99003C3F07970
:101D600000120CEC120AE27A017B009003C1E0F948
:101D7000120FC2907803E064426003021E2A9005AD
:101D80005FE014F06003021E2AC2AF121D8E0078BD
:101D90002AD0E0F618D0E0F6E59F5407F9700590D8
:101DA0008246800390824278081215B5E9C4C0E0EB
:101DB0007829E65508F50808E65509F509740B7801
:101DC000081216C3D0E02508F8906270E0A2E74040
:101DD000F8E8C333906272F0906270E0D2E0F08075
:101DE00049E0A2E55024E591A2E5501E7591DF90EF
:101DF00003C2E0640D70139003E4E004F064287003
:101E000002E4F07A00E0F9120D6A906181E0A2E349
:101E10005009E5E9A2E3500375E9F7A3E0A2E75012
:101E200009E591A2E7500375917FD0F0D083D0826D
:101E3000D00BD00AD009D008D0E0FDD0E0FCD0E033
:101E4000FBD0E0FAD0E0F9D0E0F8D0D0D0E032C05A
:101E5000E0C0D0C082C083906183E0A2E05009E579
:101E6000BFA2E0500375BFFEE0A2E15009E5BFA2AA
:101E7000E1500375BFFDE0A2E25009E5BFA2E250C8
:101E80000375BFFBE0A2E35009E5BFA2E350037571
:101E9000BFF7E0A2E45009E5BFA2E4500375BFEF2D
:101EA000E0A2E55009E5BFA2E5500375BFDFE0A25F
:101EB000E65009E5BFA2E6500375BFBFD083D082CC
:101EC0008088C0E0C0D0E8C0E0E9C0E0EAC0E0EB54
:101ED000C0E0ECC0E0EDC0E0C0F0E5A7A2E6500F26
:101EE000E5A1A2E6500953A7BF75A1BF121F27E5C0
:101EF000A7A2E5500CE5A1A2E5500653A7DF75A106
:101F0000DFE5A7A2E15009E5A1A2E1500375A1FD1B
:101F1000E5A7A2E2500CE5A1A2E2500653A7FB758B
:101F2000A1FBD0F0021E3874F81217A87521019099
:101F300003C2E064067015120C388A828B83A3A357
:101F4000A3A3A3A3E0FAA3E0FB120C86A2AFE433A1
:101F5000FED2AF9003C8E0640170187A207B009035
:101F600003C1E0F91210467A207B009003C1E0F92A
:101F7000120FC8906182E0D2E6F090055EE0602129
:101F800085C62280169003C7E064017008E5C65438
:101F9000F84405F5C653BEFC121CFC7401652160B3
:101FA000E4EEA2E092AF7F01021854008E238F244A
:101FB000858228858327851882851983E0CEA3E052
:101FC000CF852882852783EBC9EAC8EDCBECCA759B
:101FD000F010C3E833C8E933C9EA33CAEB33CBC3E3
:101FE000EA9EF526EB9FF525B35004AB25AA26EC17
:101FF00033CCED33CDD5F0DAAE23AF242274F11219
:1020000017A88A088B098C0A8D0B740F1217307869
:102010000C1215B59081FA780812158F9081FA7814
:102020000C12158F7808790C1213C750157808799F
:102030000C1215679081D278081213E740157901C8
:102040008013780C79081215679081D2780C1213DE
:10205000E740EB79007F0802185474ED1217A88A44
:10206000088B098C0A8D0B7413121730780C12151B
:10207000B59081FA780812158F9081FA780C1215B4
:102080008F780C79081213C740117808790C121553
:1020900067AA08AB09AC0AAD0B8022751000751158
:1020A000007512007513017810790C1215677810FD
:1020B000790812152EAA10AB11AC12AD137F0C02C9
:1020C00018549081FA78081215B58A828B837808A3
:1020D0001215A27F0402185474F51217A88C828D71
:1020E0008378081215B58A828B83780812157BEAEB
:1020F0002404F8EB3400F98C828D83A3A3A3A3E01E
:10210000FCA3E0FD88828983C3E09CF0A3E09DF0FE
:1021100088828983C3E09420A3E0944E402290817A
:10212000E678081215B58A828B8378081215548ACE
:10213000828B83A3A3A3A3E02420F0A3E0344EF07A
:10214000808074F51217A8E9FE900514E0FAA3E068
:10215000FBEEC333F8E433F974D528F58274803983
:10216000F583E02AF508A3E03BF509780812194F3A
:102170009081E21215D3121FAC74021216FB8A086A
:102180008B098C0A8D0B741078081214F6AA08AB10
:10219000097F0402185474F11217A88A0C8B0D8C55
:1021A0000E8D0F740F121730E0FAA3E0FB741112BA
:1021B0001730E0F508A3E0F5097413121730E0FEBC
:1021C000A3E0FF780812194FEA2401F508EB340068
:1021D000F509E4F50AF50B780C79081214069081DC
:1021E000C278081215B5780C7908121406AA0CAB3F
:1021F0000DAC0EAD0F121FAC74021216FB8B09EA68
:10220000450960047A0180027A00EC2AFCED340072
:10221000FDECF8EDF97A717B0212165A88088909EB
:10222000E4F50AF50B8E828F8378081215C4ECF85A
:10223000EDF97A717B0212165A8A088B09740578B7
:10224000081216D28E828F83A3A3A3A3E508F0A35E
:10225000E509F07F08021854C082C083E99060004D
:10226000F0D083D08222C0E074F2121894A2AFE4BE
:1022700033FED2AFC2C0E5D1A2E4500653D1EF1273
:102280001214EEA2E092AF7F010218F3C0E074F2E4
:10229000121894A2AFE433FED2AFE589A2E1500355
:1022A000121184758900C2C5EEA2E092AF7F0102CF
:1022B00018F3C0E074F2121894A2AFE433FED2AF68
:1022C000E58BA2E05003121184758B00C2E880D820
:1022D000C0E0C0D0E8C0E0E5A8D2AFC2C7A2E79294
:1022E000AFD0E0F8D0D0D0E032C0E0C0D0E8C0E05D
:1022F000E9C0E0C008C009C082C083A2AFE433F9DE
:10230000D2AF9009E0E0F8A3E0687008539AFBA30D
:1023100074018026C2E99009E0E0F50874012508FF
:10232000F074602508F58274093400F583E0F5C186
:102330009009E0E0C394804002E4F0E9A2E092AFAB
:10234000D083D082D009D008D0E0F9D0E0F8D0D046
:03235000D0E032A8
:10235400FFFFFFFFFFFFFFFFC082C083E9900BB9BF
:10236400F00225E074F712173CE99002E0F07C18C3
:102374007D037AFF7BFF1208129002E174FFF0A341
:10238400F0A3E4F0A3F0790512079A9002E0E0F9D3
:102394001206C27A307B081209F20232EE74F41289
:1023A400173C8A088B09EB548060309002E0E0F916
:1023B400120FAA8A0A8B0BAE0AAF0BEE4F60138E74
:1023C400828F83E064B070031207B2EEFAEFFB125F
:1023D4000F98AA08E5096480FB80047A007B000258
:1023E40025AF74F212173C74FC1216E5EAFEEBFFFB
:1023F40074121217301237D5EE4F70030224897409
:1024040002121730EEF0A3EF1227EAECF0A3ED125C
:1024140027EAAA82AB831206BCE9F50A706AE508CA
:10242400450960648E828F831237BBEE4F60567A03
:10243400067B00120FFE8A0C8B0DA80CA90DE8492F
:102444007005750A13804188828983E4122496EE0C
:10245400F0A3EF1237E6E508F0A3E509F09002E6F1
:1024640012251D9002E67005123298801B123286E6
:102474008003EAFCEBFD8C828D8312251D70F38CA6
:10248400828D8380E3750A02A90A74041216FB0282
:1024940039D5F0A312378CA32274F212173C890A9F
:1024A400E975F017A4FEAFF09002E5E4F09002E3C2
:1024B40012251D600A1210049002E3E4F0A3F0EE6A
:1024C400FAEFFB120FFE8A088B09EA4509602FEE2A
:1024D400FCEFFD7900120F809002E3E508F0A3E51C
:1024E40009F07B008008122507E4F0A3F00BEBC38E
:1024F400950A40F2E50A9002E5F07900800279132A
:102504000239D5EB75F017A4F8A9F09002E3E0289E
:10251400FAA3E0398A82F58322122F2AEA4B227425
:10252400F412173C740C1217301237B0FEE9FF7521
:102534000800750900800CE5082401F508E5093454
:1025440000F509C3E5089CE5099D503285080A8514
:10255400090B7403780A1216D2EA250AF8EB350B34
:10256400F988828983A3A3A3A3A3A312336DEE6581
:102574000A7003EF650B70BFE8FAE9FB80047A0088
:102584007B00802774F412173C7900EAA2E0501B08
:102594007508AC750981780812194F7C047D007A9E
:1025A400BB7B0B12079474021216FB7F0402180EF5
:1025B400C082C0839002E61225E7601C888289836A
:1025C400A3A3E06A7003A3E06B8882898370E8A305
:1025D400A3A3A3122F2680047A007B00D083D08289
:1025E400020122123ABBE8492274EE12173C74FC31
:1025F4001216E5EAFEEBFF851882851983E4F0A341
:10260400F0EE2402123278EE2405123793EE2404FD
:10261400F50EEF122B9FE024FE603924FC60462463
:10262400FE605224FE605E24FE700302270024FE36
:10263400700302276424FE700302277324FE7003D0
:1026440002278224FC700302279124FE70030227D0
:10265400A00227DD9002FF7417F0A3E41227F21200
:10266400043A0227DD851882851983AC82AD831272
:1026740007B80227AD851882851983AC82AD831211
:1026840007BE0227AD850C08850D097402121730A8
:10269400AC82AD83850882850983122F261206E059
:1026A4008A0C8B0DAC0CAD0DEC4D603BE4F50CF5D8
:1026B4000D780C12194F750CFF750D02780C121958
:1026C4004F750C00750D03780C12194F740812170E
:1026D40030121966123C371216FBE9F50C700B1216
:1026E4002F1C120452800F750C0185088285098302
:1026F4001227E0123298850C080227B074021217D0
:1027040030AC82AD83850C82850D83122CF1603C44
:10271400850C82850D83A3A31219667510FF7511AC
:1027240002781012194F75100075110378101219E0
:102734004F7408121730121966123C371216FBE94F
:10274400F509700B122F1C120458800F75090185AE
:102754000C82850D831227E0123298850908804C7B
:10276400851882851983AC82AD831207C4803A85AB
:102774001882851983AC82AD831207CA802B851811
:1027840082851983AC82AD831207D0801C851882A0
:10279400851983AC82AD831207D6800D8518828596
:1027A4001983AC82AD831207DCE9F508E5086029DA
:1027B4008E828F83A3E06414601F850E82850F834D
:1027C400E09002FF1227EA123AB7900300123298FF
:1027D400E508A31227F2120434023187123ABB85AA
:1027E400188285198322F085188285198322F07C4A
:1027F400FF7D02850A82850B83122F2A2274EE1232
:10280400173C74FC1216E58A0A8B0B8C0E8D0FEAAA
:102814002405F508EB3400F5097C157D0079007A70
:10282400FF7B02120F80E5082402F50CE50912373C
:1028340096851882851983858210858311781012F4
:10284400194F850882850983A3A3A3A3122CE81238
:10285400194FE5082405F510E5093400F511781041
:1028640012194F850C82850D8312303D1206DA74DD
:10287400061216FB8A108B11AE10AF11E50A240262
:10288400F50AE50B12327BEE4F70030229BF801765
:102894007402121730122F2688828983EAF0A3EB80
:1028A400F09002FFE004F09002FFE0C394054003BF
:1028B4000229BFE4F510F511781012194F7510E8CC
:1028C400751102781012194F7510E97511027810FC
:1028D40012194F74061217301219667910EEFCEFB4
:1028E400FD123C391216FBE9705E85088285098366
:1028F400A3A3A3A3A3A3A3E0F89002E8E06870480D
:10290400122CE812194F7CE97D02E5082408FAE547
:10291400093400FB120F7A74021216FBE960298E47
:10292400828F83A3A3A3A3122F269002FFE0F510A6
:10293400740278101216D274002510F582740335CF
:1029440011F583EAF0A3EBF07402121730858210BC
:10295400858311781012194F7402121730121966F8
:10296400850C82850D83122F4C1216FB8A108B1155
:10297400AE10AF119002FFE0F510751100740278EB
:10298400101216D274FF2510F874023511F98882DA
:102994008983A312251D700302288BE824030808E9
:1029A40008E93400F9EE4F60030228948882898391
:1029B40074FFF0A3F09002FFE004F09002FFE060E7
:1029C4000A122F1C1204467900800B85088285099F
:1029D4008312328F790A02318774EA12173C74FE2B
:1029E4001216E58C128D13EA2405F50CEB123C212A
:1029F4001237BF750800750900EA2402F510EB349C
:102A040000F51185188285198385820A85830B78E0
:102A14000A12194F850C82850D83A3A3A3A3122B3D
:102A2400B512194FE50C2405F50AE50D12327B7831
:102A34000A12194F850C82850D83122BB91206DAFE
:102A440074061216FB8A0A8B0BEA450B7003022BE1
:102A54005AEA2404F50EEB122B9F1237BF8A828B9D
:102A640083A3A3A3E0F9851082851183122F30601C
:102A740003022B5AE4F514F515781412194F751442
:102A8400E8751502781412194F7514E97515027852
:102A94001412194F74061217301219667913AC0AFE
:102AA400AD0B851082851183123C3F1216FBE9F5AC
:102AB400096003022B5A9002E8E0F8E5087009E087
:102AC4002402900300F08014900300E0FCE8240248
:102AD400FAE43400FBEA6C7001EB707E850882AA8C
:102AE40082122CDF9414122CD7506B850E82850F22
:102AF40083E0C0E074012A122B96D0E0F00508852B
:102B04000E82850F83A3E0C0E085080A7401250ABC
:102B1400122B96D0E0F005089002E8122BB512199A
:102B24004F7CE97D0285080A7401250A122BA9123B
:102B340016FB9002E8E02508F50874FF6E70037434
:102B4400FF6F6012EE24010EEF3400FFE508C3941A
:102B5400145003022A07E5086013122F3A851082E5
:102B6400851183122F2612044C79008014E5097014
:102B74000375090A851282851383EEF0A3EFF0A989
:102B84000974021216FB7F0E02180E85080C7401DC
:102B9400250CF58274033400F583223400F50F8587
:102BA4000E82F58322FA74033400FB120F68740258
:102BB400221237F522A3A3122BBF22123286FDEE76
:102BC400FAEFFB2274EE12173C74FE1216E58C0E1B
:102BD4008D0FEA2405F50CEB123796750B00900265
:102BE400FFE4F0F50AEA2402F508EB3400F5098065
:102BF400449002FFE0FA9002E8E0F8122CDF941708
:102C0400122CD7400D9002FFE0F87416C39890027E
:102C1400E8F0122CE812194F7CE97D0274002AFABC
:102C24007403122BAC1216FB9002E8E0F89002FF3A
:102C3400E028F0050AE50C2416F582E50D122B9A1E
:102C4400E0F8E50AC39850749002FFE0C39416506C
:102C54006BE50AC333F8E433F9E50C28FEE50D39D6
:102C6400FF851882851983AC82AD838E828F83128F
:102C74002CF17008750B0112328B8050E4F510F5BD
:102C840011781012194F7510E87511027810121985
:102C94004F7510E9751102781012194F7406121746
:102CA400301219667916850882850983123C3F1211
:102CB40016FBE9F50B7003022BF580BB7CFF7D024C
:102CC400850882850983122F2612045EA90B7402DB
:102CD400023189E99400C365D03322EA28F8E43448
:102CE40000F9E822E0F51075110078102212317E07
:102CF4008A108B11AC10AD11EC4D2274EA12173C02
:102D040074FC1216E58A0C8B0D8C128D13EA2405C3
:102D1400F50AEB12327B750800750900E50A2402F6
:102D2400F510E50B3400F511740212173085820E8C
:102D340085830F780E12194F850A82850B83A3A30E
:102D4400A3A312379B12194FE50A2405F50EE50BD0
:102D54003400F50F780E12194F85108285118312F5
:102D64003281122F201206DA74061216FB8A0E8B99
:102D74000FAE0EAF0FE50C2402F50EE50D3400F591
:102D84000F80388882898374FFF00508122B8F74B2
:102D9400FFF005089002E8E0F50C750D00780C12C0
:102DA400194F7CE97D0285080C7401250C122BA9AE
:102DB4001216FB9002E8E02508F508EE4F60278E16
:102DC400828F83A3A3A3E0F9850E82850F83122F3C
:102DD40030EE2404123793E96027850C82850D8335
:102DE400122F12123298E5087003022EF8122F3AAD
:102DF400850E82850F83122F261204647900022F18
:102E04000DE4F514F515781412194F7514E87515B9
:102E140002781412194F7514E975150278141219F1
:102E24004F74081217301219667911EEFCEFFD8504
:102E34000E82850F83123C3F1216FBE9F509709A46
:102E4400850882AA82EA9002E87009E024049003CB
:102E540000F08025E0F8900300E0F514E82404FC79
:102E6400E43400FDEC65147001ED7081122CDF94E4
:102E740012122CD74003022DF1850C82850D83E0BC
:102E8400C0E074012A122B96D0E0F00508850C826C
:102E9400850D83A3E0C0E0122B8FD0E0122F55855F
:102EA400820C85830D780C12194F7404121730129A
:102EB4001966851082851183122F4C1216FB8A0C19
:102EC4008B0DAE0CAF0D85080C7401250CF8740342
:102ED4003400F9EE4F7003022D878518828519831B
:102EE400E088828983122F55A3E0C0E0122B8FD093
:102EF400E0022D95E509700375090A850A82850BA0
:102F040083122F12123298A9097404022B87123AE1
:102F1400BB851282851383227CFF7D02850A82850C
:102F24000B83122F2A22E0FAA3E0FB22122F2A128B
:102F340006C8E9F50922900300E0F5F0E50884905D
:102F440002FFF07CFF7D0222122BBF1206E67404FE
:102F540022F005088518828519832274EC12173C27
:102F640074FE1216E58A088B098C0E8D0FEA24056F
:102F7400FEEB3400FF123168EE2418123793EA4551
:102F84000B700302300B12315150291230308A1069
:102F94008B11EA4511606B7912AC0AAD0B8508827E
:102FA400850983122F2685108285118312173AE929
:102FB400F50A7058E4F50AF50B780A12194F8E8257
:102FC4008F83A3A3E0F50A780A12194FEE240312A3
:102FD4003278780A12194F8E828F8312303D12088C
:102FE4000074061216FBE9F50A7021850C82850D22
:102FF40083E0701F850882850983122F2612046AD4
:103004008011750A0E8009750A018004E50A6003BF
:1030140012328B850C82850D83E060047900800276
:10302400A90A74021216FB7F0C02180E85188285F9
:103034001983122F2A1207EE22123286FD85088286
:10304400850983122F2A2274EE12173C74FE12167D
:10305400E58A088B098C0C8D0DEA2405FEEB3400FF
:10306400FF750E00123168EA450B700302312F120E
:103074003151502C1230308A0E8B0FEA450F604AC2
:103084007912AC0AAD0B850882850983122F268537
:103094000E82850F8312173AE9F50E60030231326E
:1030A40085088285098312336DAA0AFB12314370A5
:1030B400147AFF7BFF123143606C88828983E50AAE
:1030C400F0A3E50BF0750A008007750E0E805F050E
:1030D4000A9002E5E0FAE50AC39A504AE50A75F057
:1030E40017A4FAABF088828983A3A3E02AFAA3E0A9
:1030F4003BFB8A828B83123281EC4D70D2750A17A6
:10310400750B00780A12194FEEFCEFFD120F68746C
:10311400021216FBEEFCEFFD850882850983122F4F
:10312400261204708014750E098003750E01123A7C
:10313400B3850C82850D83123298A90E022CD2120B
:1031440007E28A108B11A810A911E84922E5082486
:1031540002F508E5093400F5098A828B83A3A3A349
:10316400E0A2E522851882851983AC82AD838E8224
:103174008F8312317E8A0A8B0B22E0FAA3E0FB12C2
:1031840006E02274041216FB7F0A02180E74EC1275
:10319400173C8C108D11EA2405F50CEB123796754B
:1031A4000F00EA2402F50AEB12327B850A82F583CA
:1031B400122F26123CC5700302326D750E00807109
:1031C400850C82850D83E06401704F8E828F83A30A
:1031D400A31219668E828F83A3A3A3A3E0F51275AD
:1031E4001300781212194FEE2405F512EF3400F58E
:1031F40013781212194F122F201208007406121697
:10320400FBE9F50F6014850C82850D83E4F0123A16
:10321400B38510828511831232987C177D00790062
:10322400EEFAEFFB120F808E828F83E4F0A3F00599
:103234000E9002E5E0F8E50EC398501EE50E75F019
:1032440017A4F8A9F0850882850983A3A3123C2B4F
:10325400123281EC4D60030231C4850882850983F2
:1032640074FFF0A3F0E50F7006122F20120476A964
:103274000F02302BF50AEF3400F50B22A31232862D
:10328400FD22E0FCA3E0228E828F83123ABB850EDE
:1032940082850F83E8F0A3E9F022C082C083900204
:1032A400E1E06A7003A3E06B70067AE17B028004BC
:1032B4007A007B000225E074F712173C7F00EF755B
:1032C400F003A4F8A9F0EC28F8ED39F98882898391
:1032D400E06A7003A3E06B7006E8FAE9FB800B0F69
:1032E400EFC3940240D87A007B007F0102180E7469
:1032F400F612173C1238A470067A007B008007A3EC
:10330400A3A3A3122F2602396574F212173CE9FE17
:10331400740E12173012336D74101217301237D521
:103324008C828D83E06402703BA3123AB788828951
:1033340083E0F50CA3E0F9A80C7402687003742907
:10334400697021750C02750D00780C12194F7808FC
:1033540012194F780A12194FEEF912082474061242
:1033640016FB800279010239D5E0F50AA3E0F50BDA
:103374002274E812173C74FB1216E5E9851882855D
:103384001983F08A168B178C0E8D0F741F12173049
:103394001237D5742112173012336D74231217307B
:1033A4001237BF7510008C828D83A3A3A3E0A2E41F
:1033B400502A741D1217301230368A828B83E582AC
:1033C40045837003023481790AAC0EAD0FAA16ABA3
:1033D4001712173AE9F5106003023484850E8285CA
:1033E4000F83E06402600302373AA3123AB78508F8
:1033F40082850983A3858212858313E50E2406F54D
:103404000CE50F12379688828983E0FAA3E0F9EA83
:103414002400F514E439F51578141219D9010000C3
:103424002801284934070002282035032890340055
:10343400294A36012972360229193603294A3604E3
:1034440029DB363A37EE4F703E850C82850D8312A8
:1034540037B0FAE9FB8A828B83E0850A82850B8385
:103464001237EC12194F8A828B83A3123286FDAA7B
:1034740008AB09120F6874021216FB800375100E54
:10348400A9107405023C1975100B80F4EE4F70F707
:10349400850A82850B837401F01237C585088285FD
:1034A4000983F07C007D00850E82850F83A3A3A38E
:1034B400A3E02401FAA3E03400FB1206E0EA4B6027
:1034C400418A828B83E02402F8850A82850B83E09B
:1034D40028F0EA2404F8EB3400F988828983E08533
:1034E40012828513831237FE1237EC12194F8A8227
:1034F4008B83123280E5082403FAE5093400FB02C9
:103504003477850A82850B83E02404F07C047D00F3
:103514007900AA12AB13120F80023484EE4F6003B9
:1035240002348B1237C5FEA3E0FF850A82850B8324
:103534007404F0EE850882850983F0EF8512828594
:103544001383F07403121730AC82AD83EEFAEFFBF1
:1035540012389270030235F68A828B83A3A3123742
:10356400BB740112173085820E85830F780E1219F1
:103574004F74051217301219667CFF7DFF1206E6A0
:1035840074041216FB8B0FEA450F7033850C828589
:103594000D8312379B12194F850C82850D83A3125C
:1035A40019667C027D007A737B8212051274041200
:1035B40016FBE9700A740112173074FFF0A3F08E41
:1035C400828F83E064027034750C02750D00780CF0
:1035D40012194F8E828F83123280E5082404FAE593
:1035E40009122BAC1216FB850A82850B83E0240298
:1035F40080097401121730EEF0A3EFF07401121772
:10360400301237ACF07401121730A31237A4A3A3FD
:10361400A3F0023484EE4F600302348B850C828560
:103624000D83123281AA16AB17120818850A8285F7
:103634000B837402F0EA850882850983F08512827F
:10364400851383EB80CBEE4F600302348B1237C5B6
:10365400F8A3E0F9850A82850B837402F0E88508F3
:1036640082850983F0E985128285138380A3850C02
:1036740082850D83122F26120F62EAFC8C82A882A7
:10368400C39EE49F404BE86E7001EF70047C0080A1
:103694001F851882851983E0FAEE2AFAEF3400FBBD
:1036A400C3EA98EB94005003E08004EECCC39CFC86
:1036B400EC850A82850B83F08C0A750B00780A125C
:1036C400194F850C82850D83E02EFCA3E03F023464
:1036D40072751007023484EE4F600302348B850C3C
:1036E40082850D83123AB7850A82850B837407F0AD
:1036F400888289831237A412378CE085128285135D
:1037040083F0E82402FAE93400FB8A828B831237BF
:10371400A41237DD1237ACA31237E61237B5F0E83E
:103724002405F8E93400F9888289831237B5A31295
:1037340037FEA3023612741D12173012389D70031F
:10374400023481123AB7880C890DE8450D700302E2
:1037540034818E108F11781012194F780A12194F74
:10376400780812194F7406121730E0F9AC0EAD0F39
:10377400AA16AB17850C82850D8312173A740612AC
:1037840016FBE9F510023484F088828983A322F5BC
:103794000CEF3400F50D22E0F50E750F00780E22C3
:1037A400E08508828509832212380522123ABBE893
:1037B40022123805A3A322A3A3A3A3E0FEA3E0FF40
:1037C40022850C82850D83E0F8A3E0F5838882E0EE
:1037D40022E0F508A3E0F50922A3A3F08A828B83F3
:1037E400A322122498A3A322F08A828B831237F592
:1037F40022E0F50A750B00780A2212378C1238057C
:1038040022E0850882850983A3A32274EE12173C63
:1038140074FE1216E58A0A8B0BECFAEDFB74141293
:103824001730E0F510A3E0F5117416121730E0FE1E
:103834007418121730E0F50EA3E0F50F8518828591
:103844001983AC82AD83123892603E851882851943
:103854008312389D602FA3A31237D5E5084509606C
:1038640024780E12194F781012194FEEF9AC0CADE2
:103874000DAA0AAB0B85088285098312173A7404D2
:103884001216FB8006790E80027901022CD21206F0
:10389400E08A0C8B0DEA450D22122F2A1238A4223D
:1038A4001207AC8A828B83E58245832274F6121751
:1038B4003C74FE1216E5740C1217301237B08518DA
:1038C40082851983F07401121730E9F0E4F508F5E4
:1038D40009780812194F750802780812194F7404F0
:1038E400121730858208858309780812194F120847
:1038F4000074061216FB74021216FB806474F7122D
:10390400173CEAFEEBFF89087C187D03120818EACD
:103914005402600BA908EEFAEFFB1206D480027978
:10392400010232EE74F612173C74FF6A700374FFDE
:103934006B701C7B00EB75F003A4F8A9F0EC28F87D
:10394400ED39F912396A0BEBC39402501480E61274
:1039540007E88A088B09A808A909E849600312390D
:103964006A7F0202180E8882898374FF122496E407
:10397400F02274F612173C1207E88A828B83E582E0
:1039840045836006A3A3E0FA80027A007B0080D11D
:1039940074F212173C8A088B09ECFEEDFF740E12C8
:1039A4001730E0F50A1239DA701CEEFCEFFD7AFFED
:1039B4007BFF1239DA70047911801688828983E5D5
:1039C40008F0A3E509F088828983A3A3E50AF079C6
:1039D400007F0602180E1207E88A0C8B0DA80CA9AA
:1039E4000DE8492274EE12173CEAFEEBFF8C088DB9
:1039F40009890C7412121730123AB7741412173062
:103A04001232817416121730122F26750D00EC4DE8
:103A14006003023AAB7402650C6003023AA6888222
:103A24008983123286F9EC2400F50EE439F50FEAA5
:103A3400F4F8EBF4F9EC58F8E50F59F9E849705D3E
:103A4400E5082406F8E5093400F9880A890B888218
:103A5400F583122BBB1208188A108B11E50E651022
:103A64007004E50F65116042780E12194F850A82C1
:103A7400850B83122BBB12081E74021216FBE9F588
:103A84000D7027780E12194F850882850983A3A328
:103A9400122BB912083674021216FB800D750D80B4
:103AA4008008750D0D8003750D0BA90D02318C8EE8
:103AB400828F83123ABB22E0F8A3E0F92274E81261
:103AC400173C74E71216E5851882851983EAF0A37A
:103AD400EBF08C168D17890E7431121730E0F51245
:103AE400A3E0F5137433121730E0F514A3E0F515D1
:103AF4007435121730E0F50F750800750900E509F3
:103B040075F003A4F8A9F0851882851983123C2B5B
:103B1400E0F47003A3E0F47003023C09EE2402F520
:103B24000CEF123C21E07003023C0985160A85174C
:103B34000B780A12194FAC14AD15AA12AB13120765
:103B4400A074021216FB8A0A8B0BEA450B7003025F
:103B54003C09E4F510F511781012194F7406121788
:103B640030858210858311781012194F7409121749
:103B740030858210858311781012194F8512828541
:103B84001383A3A3A3A31219667914AC0AAD0B8EF5
:103B9400828F83123C3F1216FBE97069850A828585
:103BA4000B83A3A3A3A3123AB774021217301232E1
:103BB40098850C82850D83E0A2E05018A90E74024A
:103BC400121730AC82AD838E828F83122F26120699
:103BD400F8E94208850C82850D83E0A2E15026E5D0
:103BE4000FF50A780A121953A90E7403121730AC90
:103BF40082AD838E828F83122F261206F2740112F5
:103C040016FBE942080509E509C394025003023B87
:103C140002A90874191216FB7F1002180E3400F55D
:103C24000D850C82F58322E028FEA3E039FF8E8205
:103C34008F83227916850A82850B83122F2A120715
:103C4400FA74082274F212173CEAFEEBFF890B7433
:103C540001650B600E7402650B70637901120A1022
:103C6400E9705BEEFAEFFB123CC56047750A008011
:103C74000B7C177D007900120F80050A9002E5E0A5
:103C8400F8E50AC3985021E50A75F017A4F8A9F0DD
:103C9400850882850983A3A3E028FAA3E039FB8A77
:103CA400828B831225E770C985088285098374FF96
:103CB400F0A3F07C187D03EEFAEFFB120812023930
:103CC400D51207E28A088B09EA45092274F2121711
:103CD4003C8A088B09ECFEEDFF740E121730123388
:103CE4006D900BB9E0F4603D7A097B00120F92EA03
:103CF4004B60328A828B8374B1F0A3E41237DFA362
:103D04001237DDA3E508F0A3E509123D2CEEF0A37C
:103D1400EF123D2CA3A3E50AF0A3E50BF0900BB939
:103D2400E0F9120F9E0239D5F08A828B83A3A3A3F4
:103D3400A3A322C082C0839061907404F0A374484A
:103D4400F0A37402F09061807440F09061BC74033D
:103D5400F09061877419F0906265741BF090619C17
:103D6400740DF090619A7433F0A37455F09061A0CF
:103D7400743AF090055CE064017009C2919003C646
:103D8400746780059003C67461F090235AE493909D
:103D94006186F0902354E493F46027E493540FF87D
:103DA400906185E0686012E5C654804449F5C6E533
:103DB4009E547F644970F8E8F053C680E59E547FB2
:103DC40070FA7905120D4C023F4CC082C083E5A8FD
:103DD400F853A87E906181E4F0A3F0A3F0C2BA5333
:103DE4009AFEC289759B00C2C275E900759100757F
:103DF400BF0075A91175B905906181F0A374C0F075
:103E0400A3E4F0D2BA439A0174805842A8023F4C0A
:103E1400C082C08374F81216E59003C4E0F8A3E0EE
:103E2400F9E8497003023F429003C4E05440602320
:103E34007908851882851983AA82AB83120BC685FB
:103E44001882851983AA82AB831208A29003C4E066
:103E540054BFF0E054806010790C7A807B05120B1B
:103E6400C69003C4E0547FF0E0A2E0503190619A20
:103E74007433F0A37455F09061A0743AF090055C2B
:103E8400E064017009C2919003C6746780059003D1
:103E9400C67461F01208A89003C4E054FEF0E05424
:103EA40002603190619A743FF0A3745AF09061A05B
:103EB400747FF090055CE064017009D2919003C6B0
:103EC400747180059003C6746AF01208A89003C444
:103ED400E054FDF0E054046013902358E49390619F
:103EE40086F01208AE9003C4E054FBF0E05408607E
:103EF40013902359E493906186F01208AE9003C4A2
:103F0400E054F7F0E05410601390235AE493906166
:103F140086F01208AE9003C4E054EFF0E054206041
:103F24000A1208AE9003C4E054DFF0A3E054016029
:103F34000D120AEE1208B49003C5E054FEF07408A2
:103F44001216FB8003F0A3F0D083D0820201227406
:103F5400EC12173C74F41216E5851882851983ACAB
:103F640082AD8375838275820E74041215F89023D2
:103F74005893F460030240E0907808E0C394025040
:103F8400030240C07404121730AC82AD8375838180
:103F940075824B74081215F88518828519838582F9
:103FA400128583137404121730AC82AD83750EFF2F
:103FB400750FFF7FFF7E00750C48750D78801574B2
:103FC400086E700302405374096E70030240537408
:103FD4000A6E607B850C82850D8378081215B58C7A
:103FE400828D83A909E50AC9F88810741878081223
:103FF40014F6E5104508F8C3E098A3E099850C820F
:10400400850D8378081215B540188C828D83741839
:1040140078081214F6E5104508F8E0C398F8A3E010
:10402400801C741878081214F6E5104508FAE9FBA8
:104034008C828D83E0F8A3E0F9EAC398F8EB99F950
:10404400C3E8950EE9950F5006880E890FEEFF0E12
:10405400E50C2404F50CE50D3400F50DEEC39413C2
:104064005003023FC374FF650E700474FF650F6054
:10407400238F08740278081216D274482508F58232
:1040840074783509F58378081215B585128285137D
:1040940083E508F0EC24020C0CED3400FD8512825B
:1040A400851383A3858212858313740C121730E55C
:1040B400826C7003E5836D6003023FB1750801757E
:1040C4000900780812194F7402121730AC82AD83BC
:1040D4007AD67B0812116074021216FB740C121645
:1040E400FB7F0C02180EC082C0839061AE7468F02E
:1040F400A3746AF090624574FBF0A304F053F4FDDA
:1041040043FE0290055C7401F09061A0E0643A9073
:10411400619A70237433F0A37455F09061A0743ADB
:10412400F0740164017009C2919003C67467802819
:104134009003C674618021743FF0A3745AF09061B7
:10414400A0747FF0740164017009D2919003C67465
:104154007180059003C6746A023F4B7F0402180EF7
:10416400C082C08390050EE06401700A900513E0DC
:104174006004790C80027900023F4CC082C08375D0
:10418400E1F1900511E06055146008146059146061
:10419400518059120B00900507E0F97A087B05124B
:1041A4000CCE9082161215D3120D049081F61215BE
:1041B400D3120CDA900512E0F9120CE67901120D13
:1041C40040900505E02416F8A3E03400F9888289BC
:1041D400837418F0A3740BF07900023F4C120B06A1
:1041E40080B4120B0C80AF120B1280AA791280EAF1
:1041F40074F412173C75D90D9004F6E0A2E0E43390
:104204001313F8900507E0C4333354C0484401F550
:10421400D97805790588828983A3A3A3E0F5D98891
:10422400828983A3A882A983E8640B7003E96405E7
:1042340070E378F6790488828983A3E0F5D98882CB
:104244008983A3A882A983E864FC7003E9640470E9
:10425400E575E1959004F6E0F97AF77B04120CD445
:10426400900BDB74B2F0A3740AF0A3740EF0A37481
:104274000CF0A3740EF0A3740CF0A3740EF0A374EA
:104284000CF0A374B8F0A3740AF0A3740EF0A37432
:104294000CF0A374D0F0A3740AF0900BE9740EF040
:1042A400A3740CF0A3740EF0A3740CF0A3740EF0BA
:1042B400A3740CF0A3740EF0A3740CF0A3740EF0AA
:1042C400A3740CF0A3740EF0A3740CF0900505E035
:1042D400F8A3E0F5838882A3A378081215B5908229
:1042E4001A78081215419081FA780812158F9005F2
:1042F40005E0240EF8A3E03400F988828983780865
:104304001215C4900505E02414F8A3E03400F988DC
:104314008289837413F09003C27402F002415FC077
:1043240082C083900517E02407F5D9900507E0C4FF
:10433400333354C0F5D97805790588828983A3A3DA
:10434400A3E0F5D988828983A3A882A983E8640BB2
:104354007003E9640570E3900517E0601F78057940
:1043640005FAE82413F582E93400F583E0F5D988E9
:10437400828983A3A882A9831AEA70E6900537E0AC
:104384002407F5D9900507E0C4333354C04404F539
:10439400D97805790588828983A3A3A3E0F5D98810
:1043A400828983A3A882A983E8640B7003E9640566
:1043B40070E3900537E0601F78057905FAE8243347
:1043C400F582E93400F583E0F5D988828983A3A8CE
:1043D40082A9831AEA70E675E195900BDB74BEF04E
:1043E400A3740AF0A3740EF0A3740CF0A3740EF07B
:1043F400A3740CF0A3740EF0A3740CF0A374B8F0BF
:10440400A3740AF0A3740EF0A3740CF0A374D0F098
:10441400A3740AF0900BE9740EF0A3740CF0A37467
:104424000EF0A3740CF0A3740EF0A3740CF0A37438
:104434000EF0A3740CF0A3740EF0A3740CF0A37428
:104444000EF0A3740CF09081E61215D3900505E0EC
:10445400240EF8A3E03400F9888289831215DF90D2
:104464000505E02414F8A3E03400F98882898374F4
:1044740012F09003C27401023F4BC082C0839005C6
:1044840017E02407F5D9900507E0C4333354C0443A
:1044940002F5D97805790588828983A3A3A3E0F579
:1044A400D988828983A3A882A983E8640B7003E96D
:1044B400640570E3900517E0601F78057905FAE854
:1044C4002413F582E93400F583E0F5D988828983E1
:1044D400A3A882A9831AEA70E675E195900BDB74B0
:1044E400CAF0A3740AF0A374CAF0A3740AF0A37404
:1044F400CAF0A3740AF0A374CAF0A3740AF0A374F4
:10450400CAF0A3740AF0A374CAF0A3740AF0A374E3
:10451400D0F0A3740AF0900BE9740EF0A3740CF0BD
:10452400A3740EF0A3740CF0A3740EF0A3740CF037
:10453400A3740EF0A3740CF0A3740EF0A3740CF027
:10454400A3740EF0A3740CF09081E61215D39005B9
:1045540005E0240EF8A3E03400F98882898312155B
:10456400DF900505E02414F8A3E03400F98882897B
:10457400837414F09003C27404023F4BC082C0835E
:10458400900517E02407F5D9900507E0C4333354A8
:10459400C04406F5D97805790588828983A3A3A345
:1045A400E0F5D988828983A3A882A983E8640B7083
:1045B40003E9640570E3900517E0601F7805790549
:1045C400FAE82413F582E93400F583E0F5D988820A
:1045D4008983A3A882A9831AEA70E6900537E024A8
:1045E40007F5D9900507E0C4333354C04404F5D922
:1045F4007805790588828983A3A3A3E0F5D9888205
:104604008983A3A882A983E8640B7003E964057015
:10461400E3900537E0601F78057905FAE82433F55F
:1046240082E93400F583E0F5D988828983A3A882DE
:10463400A9831AEA70E675E195900BDB74C4F0A3C4
:10464400740AF0A3740EF0A3740CF0A3740EF0A318
:10465400740CF0A3740EF0A3740CF0A3740EF0A306
:10466400740CF0A3740EF0A3740CF0A374D0F0A334
:10467400740AF0900BE9740EF0A3740CF0A3740E9A
:10468400F0A3740CF0A3740EF0A3740CF0A3740ED6
:10469400F0A3740CF0A3740EF0A3740CF0A3740EC6
:1046A400F0A3740CF09081E61215D3900505E02474
:1046B4000EF8A3E03400F9888289831215DF90058F
:1046C40005E02414F8A3E03400F988828983741582
:1046D400F09003C27403023F4BC082C0839005056F
:1046E400E0F8A3E0F5838882A3A3A3A3A3A3E40231
:1046F4003F4974F712173C9003F0E0F875F004A4F6
:10470400C8AAF02AF974F228F8740339F9E82405E0
:10471400FAE93400FB8A828B83E0FCA3E0FD888203
:104724008983A3A3A3A3A3A3A3A3A3ECF0A3EDF062
:1047340088828983A3A3A3A3A3A3A3E024FFF8A34C
:10474400E034FFF98A828B83E8F0A3E902499B7481
:10475400F712173CEAFEEBFF9061D0E060030248D9
:104764003075D90E75D90375D904EE248CF582EF12
:104774003400F583E5822408F8E5833400F9E0F594
:10478400D9A3E865827003E9658370F2EE2484F5A9
:1047940082EF3400F583E5822404F8E5833400F9DC
:1047A400E0F5D9A3E865827003E9658370F275E1E9
:1047B400957908EE248CFAEF3400FB120BBA7904D5
:1047C400EE2484FAEF3400FB120BBA7C00EEF8EF0F
:1047D400F9ECFAC3E49AFA95E0FBEE2AFAEF3BFB14
:1047E400EA248BF582EB3400F583E0C0E0E824ABE7
:1047F400F582E93400F583D0E0F00C88828983A344
:10480400A882A983ECC3940840C7EE2470F582EF14
:104814003400F583E0F8A3E0F9EE2472F582EF3476
:1048240000F583E8F0A3E9F07901800279000249F8
:104834009CC082C08375D90275D90375D90575E109
:1048440095EA2470F582EB3400F583E0F8A3E0F9EF
:10485400EA2472F582EB3400F583E8F0A3E9F079F9
:1048640001023F4C74F612173CEAFEEBFF90056020
:104874007406F0750860750905780812194F7C01F3
:104884007903120C0274021216FB75D90675D9034A
:10489400758260758305E0F5D9A3E58264657004CB
:1048A400E583640570F075E1959003C2E0640870D7
:1048B4001EEE2470F582EF3400F583E0F8A3E0F9EE
:1048C400EE2472F582EF3400F583E8F0A3E9F07981
:1048D40001024A6874F612173CEAFEEBFF9061D0BD
:1048E400E070667801900560740BF09003C2E06498
:1048F400077019750860750905780812194F7C014D
:104904007903120C0274021216FB7805740128F55F
:10491400D975D903758260758305E8FAE0F5D9A3E2
:104924001AEA70F875E195EE2470F582EF3400F51B
:1049340083E0F8A3E0F9EE2472F582EF3400F58306
:10494400E8F0A3E9F0790180027900024A6874F77B
:1049540012173CEAFEEBFF75D90375D90375D90D1F
:10496400EE24DEF582EF3400F583E0F5D975E195A8
:104974007904120D0AEE2470F582EF3400F583E019
:10498400F8A3E0F9EE2472F582EF3400F583E8F041
:10499400A3E9F079018001F07F0102180E74F61288
:1049A400173CEAFEEBFF9061D0E0F87480C398FAFC
:1049B400EE2483F582EF3400F583E060047804800C
:1049C400027800E8240BF8EAC3985003024A667D93
:1049D40009900560EDF0EE24E3F8EF3400F97A6114
:1049E4007B057C0888828983E08A828B83F08882B5
:1049F4008983A3A882A9838A828B83A3AA82AB8397
:104A04001CEC70E0EE2483F582EF3400F583E06063
:104A14001D750860750905780812194F7C0979031A
:104A2400EEFAEFFB120C0274021216FB7D0D7401F8
:104A34002DF5D975D9037582607583058D08E0F568
:104A4400D9A31508E50870F675E1957904120D0AE5
:104A5400EE241DF582EF3400F583E4F0A3F0790130
:104A6400800279007F0202180E74F612173CEAFEE7
:104A7400EBFF9061D0E0F87480C398FAEE2483F5DC
:104A840082EF3400F583E06004780480027800E863
:104A94002408F8EAC3985003024B6D7D0690056024
:104AA400740CF09003DFE0900561F07AE07B03780A
:104AB4006279057C028A828B83E088828983F08A0A
:104AC400828B83A3AA82AB8388828983A3A882A9C9
:104AD400831CEC70E07AE27B037C028A828B83E0A5
:104AE40088828983F08A828B83A3AA82AB8388829B
:104AF4008983A3A882A9831CEC70E0EE2483F58249
:104B0400EF3400F583E0601D7508607509057808C9
:104B140012194F7C067903EEFAEFFB120C027402B1
:104B24001216FB7D0A74012DF5D975D903758260BF
:104B34007583058D08E0F5D9A31508E50870F675A9
:104B4400E1957904120D0AEE2470F582EF3400F534
:104B540083E0F8A3E0F9EE2472F582EF3400F583E4
:104B6400E8F0A3E9F0790180027900024A6874F65A
:104B740012173CEAFEEBFF9061D0E0F87480C39812
:104B8400FAEE2483F582EF3400F583E060047804C0
:104B940080027800E82404F8EAC3985003024C4CDD
:104BA4007802900560E8F0EE24F5F582EF3400F524
:104BB40083E0900561F0EE2483F582EF3400F58301
:104BC400E0601B750860750905780812194F7C02AE
:104BD4007903EEFA120C0274021216FB78067401C1
:104BE40028F5D975D9037582607583058808E0F5C1
:104BF400D9A31508E50870F675E195EE2474F582DD
:104C0400EF3400F583E4F0EE2480F582EF3400F510
:104C140083E4F0EE241DF582EF3400F583E4F0A381
:104C2400F07904120D0AEE240DF582EF3400F583B9
:104C3400E0F8A3E0F9EE2472F582EF3400F583E89E
:104C4400F0A3E9F0790180027900024A6874F6124F
:104C5400173C9061D0E0F87480C398FCEA2483F593
:104C640082EB3400F583E06004780480027800E885
:104C74002404F8ECC398405B79029005607407F053
:104C8400EA24F6F582EB3400F583E0900561F0EA5E
:104C94002483F582EB3400F583E0601875086075B1
:104CA4000905780812194F7C0209120C02740212C9
:104CB40016FB7906740129F5D975D90375826075D7
:104CC4008305E9F8E0F5D9A318E870F875E195795A
:104CD4000180027900024A6874F512173CE9FCA2CB
:104CE400AFE433F50AC2AF7D0080010DEA246FF50D
:104CF40082EB3400F583E0F8EDC398501A8D08EA8E
:104D04002508F8EB3400F9E8246BF582E93400F562
:104D140083E06C70D68024EA246FF8EB3400F9E069
:104D2400FEEA2EFAEB3400FBEA246BF582EB340046
:104D3400F583ECF088828983E004F0E50AA2E0922E
:104D4400AF7F0302180E74F612173CA2AFE433FDD2
:104D5400C2AFEA246FF582EB3400F583E014F07CF3
:104D64000060368C08EA2508F8EB3400F9E8246C76
:104D7400F582E93400F583E0C0E0E8246BF582E9CC
:104D84003400F583D0E0F00CEA246FF582EB3400B4
:104D9400F583E0F8ECC39840CAEA246EF582EB345C
:104DA40000F58374FFF0EA246AF582EB3400F5839E
:104DB400E4F0EDA2E092AF024A68C082C083E5A8A5
:104DC400F8C2AFEA246BF582EB3400F583E9F0EA2C
:104DD400246AF582EB3400F583E4F0E8A2E792AFAD
:104DE400023F4C74F312173CEAFEEBFFECFAEDFBC6
:104DF4008A828B83A3A3A3A3E0541FF0EE2436F589
:104E040082EF3400F583E4F0F50AEEFCEFFD8A82CC
:104E14008B83E0C0E0EC245DF582ED3400F583D0B3
:104E2400E0F0750B00E50A33333354F8F50C8A824D
:104E34008B83E0F508750900E50B78081216B3E5D5
:104E440008A2E0502FEE2436F8EF3400F988828966
:104E540083E0F508EE2508F508EF3400F509E508C8
:104E64002438F582E5093400F583E50CF08882895D
:104E740083E004F0050B050CE50BC3940840AF0573
:104E84000A8A828B83A3AA82AB838C828D83A3AC90
:104E940082AD83E50AC394055003024E127F0502D6
:104EA400180E74F712173C9003EEE0640170077A51
:104EB400007B0002501D7E009003F4E070F1740149
:104EC400F0A3E4F0A3F090045404F0900457E4F049
:104ED400A3F090045A04F09003F7E4F0A3F0A3F0D5
:104EE400A3F090040104F0900427E4F09081DA1216
:104EF40015D390040A1215DF90040EE4F0A3F0A376
:104F0400F0900472F0900466F090045B7480F0A357
:104F1400E4F0900461F0900459F09004DDF0A3F003
:104F2400A3F0A3F0A3F0A3F0A3F0A3F09004E6F0A1
:104F3400900475F09004C5F0A3F09081DA1215D3B3
:104F44009004C71215DF9081DA1215D39004CB12A6
:104F540015DF9004D1E4F09004D3F09004CFF090E6
:104F640004E9F0A3F0A3F0A3F0A3F0A3F0A3F0A34B
:104F7400F078EE7903E8246FF582E93400F5837460
:104F8400FFF00E88828983A3A882A983EEC39404C8
:104F940040E37AEE7B0378FD790488828983E0C05C
:104FA400E0EA2461F582EB3400F583D0E0F08882F6
:104FB4008983A3A882A9838A828B83A3AA82AB83D1
:104FC400E864027003E9640570D07AEE7B0378D557
:104FD400790388828983A3E0C0E0EA24E7F582EBC1
:104FE4003400F583D0E0F088828983A3A882A98362
:104FF4008A828B83A3AA82AB83E864DD7003E964AD
:105004000370CF9003EEE004F0640170089003F69F
:10501400E09003F0F07AF27B0302499CC082C083E3
:105024009003F5E4F09003F4F09003EEF0A3F0A302
:1050340074FFF075E1F1023F4CC082C083780079BF
:10504400009003F5E0600478F2790388828983A3F1
:10505400A3A3A3E0F9023F4C74F612173CEAFEEB5B
:10506400FF8E828F83A3A3A3E0600F8E828F83A31E
:10507400A3A3E4F09003EFE014F09003EEE014F047
:1050840070069003F074FFF08E828F83A3A3E4F084
:10509400900502E0700D9003EFE064017005790063
:1050A400120CECEE2465F582EF3400F583E0F8A3EE
:1050B400E0F9E8496029EE2465F8EF3400F988083E
:1050C40089098882F583E0FCA3E0FD9003F0E0FA0F
:1050D4007B001208D8850882850983E4F0A3F0EEEA
:1050E400FAEFFB120C32024A6874F712173CEAFE1C
:1050F400EBFF8E828F83A3A3A3A3E0FA7B001209A4
:105104001AEEFAEFFB120B84120C1A02499CC082AD
:10511400C08378D5790388828983A3E4F08882895F
:1051240083A3A882A983E864DD7003E9640370E6BD
:105134009003D602447974F612173CEAFEEBFFECB6
:105144002403F8ED3400F988088909EC2407F8ED04
:105154003400F9E8FCE9FD8C828D83E0F8A3E0F9E2
:10516400850882850983E0FAA3E0FB12165AEE242F
:105174000DF582EF3400F583E8F0A3E9F08C828D1D
:1051840083E0F8A3E0F9850882850983E0FAA3E0C7
:10519400FB12165A8B09EA45096013EE240DF582B9
:1051A400EF3400F583E02401F0A3E03400F0024A78
:1051B4006874F612173CEAFEEBFFEE242EF582EF3C
:1051C4003400F583E0FCA3E0FD780079FAECFAED15
:1051D400FB12165AEE2470F582EF3400F583E8F0E2
:1051E400A3E9F0780079FAECFAEDFB12165A8B0970
:1051F400EA45096013EE2470F582EF3400F583E08C
:105204002401F0A3E03400F0024A6874F012173C61
:10521400EAFEEBFF741012173078081215B5120C61
:10522400B08A0C8B0D8C0E8D0F908232780C121577
:10523400419081FA780C12158F780C12194B8E82DA
:105244008F83E0F8A3E0F5838882A3A31215D31219
:105254001FFD74041216FBE9600302535C8E828FF7
:1052640083E02402F8A3E03400F9E8FAE9FB8A8237
:105274008B8378081215549081FA78081215B58A30
:10528400828B8378081215A2EE240BF582EF34008A
:10529400F583C082C0838E828F83A3A3A3A3A3E0DC
:1052A4002401F8A3E03400F9D083D082E0687003CD
:1052B400A3E0697005790102535E8E828F83A3A3F4
:1052C400A3A3A3A3A3E02401F0A3E03400F0EE24FD
:1052D40074F582EF3400F583E064017036EE2475D2
:1052E400F582EF3400F583E0F8A3E0F98E828F8332
:1052F400A3A3A3A3A3A3A3E0687003A3E06970130B
:10530400EE2475F582EF3400F583E02401F0A3E088
:105314003400F0EE2480F582EF3400F583E064017C
:105324007036EE2481F582EF3400F583E0F8A3E0D3
:10533400F98E828F83A3A3A3A3A3A3A3E06870031E
:10534400A3E0697013EE2481F582EF3400F583E065
:105354002401F0A3E03400F079007F0802180E74F1
:10536400F712173C9003F0E0F875F004A4C8AAF013
:105374002AF974F228FE740339FF8028EE2465F8B4
:10538400EF3400F988828983E0FCA3E0FD888289F8
:1053940083E4F0A3F08E828F83A3A3A3A3E0FA7B1C
:1053A400001208D8EE2465F582EF3400F583E0F8A6
:1053B400A3E0F9E849604FEE2464F582EF3400F588
:1053C40083E0F5087808121953EE2463F582EF346C
:1053D40000F583E0F9EE2465F582EF3400F583E00F
:1053E400FCA3E0FDEEFAEFFB120BAE74011216FB08
:1053F400E96089EE2465F582EF3400F583E0F8A3D3
:10540400E0F9E84970137C007D008E828F83A3A3AA
:10541400A3A3E0FA7B001208D802499C74F2121785
:105424003CEAFEEBFF890A740E121730E0FAEE2410
:1054340062F582EF3400F583E0640160030254EC0A
:105444009061D0E0F87480C398F50CEE2483F58263
:10545400EF3400F583E06004780480027800890862
:10546400E928F8E43400F9E824020808E93400F9EA
:10547400E50C98E499A2D265D0334068EA700575CA
:105484000B028003750B01E060397509007808127E
:10549400194F7A607B05120BE474021216FB75082F
:1054A40060750905780812194FAC0AA90BEEFAEFDA
:1054B400FB120C0274021216FB7404250AF50A7C12
:1054C400607D057401250AF5D9850BD9E50A600DBF
:1054D4008C828D83F8E0F5D9A318E870F875E1950E
:1054E400790080067907800279FF7F0602180EC0D2
:1054F40082C083E960208C828D83E08A828B83F072
:105504008C828D83A3AC82AD838A828B83A3AA828F
:10551400AB8319E970E0ECFAEDFB023F4C74EA123C
:10552400173C907803E06442705E90055FE014F0ED
:105534007056C2AF12553B00782AD0E0F618D0E07E
:10554400F6E59F5407F970059082468003908242E5
:1055540078081215B5E9C4C0E07829E65508F508BD
:1055640008E65509F509740B78081216C3D0E0252E
:1055740008F8906270E0A2E740F8E8C333906272E2
:10558400F0906270E0D2E0F09003F0E0F470030277
:105594005944E0F875F004A4C8AAF02AF974F22872
:1055A400FE740339FFEE2402F582EF3401F583E043
:1055B400F8A3E0F9E849601EEE2402F582EF340115
:1055C400F583E0FAA3E0FBEE2401F582EF3401F564
:1055D40083E0F9120FC28E828F83A3A3A3A3A3A394
:1055E400A3E0F8A3E0F98E828F83A3A3A3A3A3E887
:1055F400F0A3E9F0906054E09003C9F0906055E0A6
:105604009003CAF0906056E09003CBF0906057E0AE
:105614009003CCF0906058E09003CDF0906059E096
:105624009003CEF090605AE09003CFF090605BE07E
:105634009003D0F090605CE0FC9003D1F090605D4A
:10564400E0FB9003D2F090605EE0FD9003D3F09015
:10565400605FE0FA9003D4F09003CFE08C08250853
:10566400F8E43400F98D08E82508F8E93400F98BEA
:1056740008E82508F8E93400F98A08E82508FAE971
:105684003400FBEE24F7F582EF3400F583E02AF0D2
:10569400A3E03BF08C08EE24F9F582EF3400F583A7
:1056A400E02508F0A3E03400F0EE24FBF582EF34AB
:1056B40000F583E02401F0A3E03400F0EE24FFF5CC
:1056C40082EF3400F583E0F8A3E0F9E84960429002
:1056D4006000E0C333FCE433FDE82CF582E93DF5DA
:1056E40083E02AF0A3E03BF0906000E0FA9003D15D
:1056F400E0FCEAC333FAE433FBE82AF8E93BF9E8CF
:10570400244AF582E93400F583E02CF0A3E0340068
:10571400F09003CFE070119003D2E0700BA3E0701F
:1057240007A3E070030258248E828F83A3A3A3A34C
:10573400A3E0F8A3E0F9EE240DF582EF3400F5833D
:10574400E028F8A3E039F9EE240BF582EF3400F5F4
:1057540083E8F0A3E9F0EE240FF582EF3400F5833B
:10576400E4F0EE241CF582EF3400F583E06401706C
:105774001EEE2420F582EF3400F583E0F8A3E0F96F
:10578400EE241DF582EF3400F583E8F0A3E9F090F0
:1057940003CAE06052EE241CF582EF3400F58374F2
:1057A40001F0EE246AF582EF3400F583E07038EE00
:1057B4002474F582EF3400F583E0702BEE2480F539
:1057C40082EF3400F583E0701EEE2420F582EF347E
:1057D40000F583E0F8A3E0F9EE241DF582EF340030
:1057E400F583E8F0A3E9F0906062E070030258D713
:1057F4008E828F83E0F8A3E0F9E82406FCE9340004
:10580400FDE82402FAE93400FB120CAA8E828F838D
:10581400E02412F8A3E03400F9888289830258E175
:105824009003D1E0603AEE240FF582EF3400F58363
:10583400E4F0EE241CF582EF3400F583E06401709B
:1058440040EE2420F582EF3400F583E0F8A3E0F97C
:10585400EE241DF582EF3400F583E8F0A3E98020FF
:10586400EE24FDF582EF3400F583E02401F0A3E09B
:105874003400F0EE241DF582EF3400F583E4F0A348
:10588400F0EE240BF582EF3400F583E0F8A3E0F9A1
:105894008E828F83A3A3A3A3A3E0687003A3E0690C
:1058A4006003025793EE240FF582EF3400F583E092
:1058B40060128E828F83A3A3A3A3A3E06405700266
:1058C400A3E0600B7908EEFAEFFB120B8A80717982
:1058D4003E80F3EE241DF582EF3400F583E4F0A35B
:1058E400F0906060E0C0E0EE2469F582EF3400F5EA
:1058F40083D0E0F09003CFE0F8EE2467F582EF3434
:1059040000F583E028025A4490055DE06401703597
:10591400120D58EE2467F582EF3400F583E070062B
:105924009060607480F0EEFAEFFB120C74E964018D
:10593400600E120BA8120C6EE964016003120C1ABB
:105944007F0E02180EEE2483F582EF3400F583E017
:105954006004780480027800E50CC398F91208CC3E
:105964008A0A8B0BEA450B60A7EE2483F582EF3499
:1059740000F583E070048A088B09E50C6012850841
:1059840082850983F512E5D9F0A31512E51270F6A4
:10599400EE2483F582EF3400F583E0603774FC2550
:1059A4000CF50C780812194FAC0CA90DEEFAEFFBAC
:1059B400120C0874021216FBE970197403650D7059
:1059C40003025A84E50A24FBFAE50B34FFFB1210A8
:1059D40004025A847403650D7003025A89850C0EFF
:1059E400750F00780E12194FAC08AD09AA0AAB0B5B
:1059F400120BE474021216FBEE2469F582EF3400F4
:105A0400F583E064807004747F8001E0F508780811
:105A1400121953E50DF5087808121953A90CAC0AAC
:105A2400AD0B9003F0E0FA7B001208D27402121658
:105A3400FB120D64EE2467F582EF3400F583E01465
:105A4400F0E07003025924750860750905750A00B1
:105A5400750B00E5D914F50CE5D95403F50D602058
:105A64007403650D700302597EE50C700302590C32
:105A7400EE2468F582EF3400F583E0600302590CEC
:105A8400793D0258CA850882850983E0F8A3858296
:105A940008858309603B147003025C81147003025F
:105AA4005F75147003025CDF24FD7003025DFF1454
:105AB4007003025A35147003025E5524FE7003020B
:105AC4005E0E147003025E50147003025EEA025EFE
:105AD400F9EE2477F510EF3400F511E08510828596
:105AE4001183F0850882850983A38582088583094B
:105AF400EE2478F50EEF3400F50F7902AC08AD0909
:105B0400AA0EFB120BB48A088B09EE247AF50CEF6B
:105B14003400F50D7902AC08AD09AA0CFB120BB4E4
