:020000040000FA
:0600000002010A021EA726
:03002B0002232885
:0300330002230A9B
:03003B000223415C
:030043000222BED8
:03005300021F1A6F
:03006B000222E48A
:10008300021D5BE5C754F84401F5C779012200005E
:100093000080FB120086B900030200F4E4792178A2
:1000A30008B800028004F709D8FCE479297802B87B
:1000B30000028004F709D8FCE490028178BE790934
:1000C3008002F0A3D8FCD9FA900B3EAA82AB8390AE
:1000D300013A785379048015E493A3AC82AD838A03
:1000E300828B83F0A3AA82AB838C828D83D8E9D9D8
:1000F300E775822C7583A7740312011C75829175B1
:100103008300740012011C75D00075813F7518813E
:10011300751902759F00020096C09FF59FE473D086
:100123009F22D083D082C09FE493C0E0740193C028
:10013300E0740293F59F22FF0000B400002800281A
:1001430000283075A000A000A000A000000800084F
:10015300E001F0001000100010001000100010006B
:1001630050005000500010001000D00700000000A5
:1001730000000F00010005003075070010000100AA
:1001830081FF0000FF8A06A8069006FF020202080C
:10019300025000A0000000E8030275820100004D38
:1001A30082027182010000930B025782010000B2A8
:1001B30002027182010000940B025582010000C803
:1001C30002027182010000950B025382010000CAF2
:1001D30002027182010000960B029D82080000CB8F
:1001E30002027182010000970B02678201000098EE
:1001F3000BFF0100FF200275820100004A82027199
:1002030082010000FC0B0279820000000000025909
:10021300820300001803660C660C660C660C660C01
:10022300660C660C660C660C660C660C660C660C3B
:10023300E20EFA0EDC0EFFFF01E803053F10FF009C
:1002430001307503020106000000000000000000F9
:10025300000000000000000000000000000000009B
:10026300000000FFFF0600800CE8031409496E63D9
:10027300682053697A6572202020202020202020C6
:10028300051250002003020A000201060302CCFFFC
:1002930053696D706C6520424C45205065726970DE
:1002A300686572616CB6130000BC13104E6F646511
:1002B3003000104E6F64653100104E6F646532007C
:1002C300104E6F64653300104E6F64653400104E3A
:1002D3006F64653500104E6F64653600104E6F64B1
:1002E300653700104E6F64653800104E6F646539D2
:1002F30000105374617274001042617474657279F2
:10030300000275820100005082027182010000B276
:100313000C028782000000E00A025982030000E217
:100323000A025B82010000B30C027182010000B972
:100333000C028982000000E80A025982030000EAE5
:100343000A025B82010000BA0C027182010000C044
:100353000C028B82000000F00A025982030000F2B3
:100363000A025B82010000C10C027182010000C716
:100373000C028D82000000F80A025982030000FA81
:100383000A025B82010000C80C027182010000CEE8
:100393000C028F82000000000B025982030000024E
:1003A3000B025B82010000CF0C027182010000D5B9
:1003B3000C029182000000080B0259820300000A1C
:1003C3000B025B82010000D60C027182010000DC8B
:1003D3000C029382000000100B02598203000012EA
:1003E3000B025B82010000DD0C027182010000E35D
:1003F3000C029582000000180B0259820300001AB8
:100403000B025B82010000E40C027182010000EA2E
:100413000C029782000000200B0259820300002285
:100423000B025B82010000EB0C027182010000F100
:100433000C029982000000280B0259820300002A53
:100443000B025B82010000F20C027182010000F8D2
:100453000C029B82000000300B0259820300003122
:100463000B025B82010000F90C027182010000FFA4
:100473000C028182000000370B025982030000380E
:100483000B025B82010000000D1201258B99031200
:100493000125A29903120125D199031201250A9A74
:1004A30003120125329A03120125609A03120125D2
:1004B300779A031201258E9A03120125A49A031237
:1004C3000125CB9A03120125DE9A03120125F49A22
:1004D30003120125079B031201252C9B03120125FF
:1004E30011A40212012510A50212012545A502122D
:1004F300012566A50212012576A50212012597A5FD
:1005030002120125A3A60212012570A702120125DA
:10051300E3A70212012569A802120125ACA8021261
:100523000125E3A80212012569A9021201253BAAAC
:100533000212012599AA02120125B1AA021201256C
:100543002BAB021201252EAB0212012531AB021295
:100553000125D8AB02120125F0AB0212012520AC14
:100563000212012540AC021201252EAD0212012513
:10057300E4AD021201255CEB0212012584EB0212A9
:100583000125B2EB02120125E9EB0212012551EC20
:10059300021201259AEC02120125E5EC0212012553
:1005A30023ED0212012560ED021201258EED0212E8
:1005B300012535EE021201253FEE021201254CEE14
:1005C300021201257FEE0212012541EF02120125DD
:1005D3004DEF0212012565EF021201256FEF0212A2
:1005E30001250EFF011201251CFF0112012534FF15
:1005F300011201254CFF01120125AFA501120125AE
:100603004DA601120125C5A601120125DAA7011283
:10061300012514A801120125BDA80112012592A9E3
:1006230001120125F6AA011201254DAB0112012584
:10063300D4AB01120125BBAC0112012508AD011297
:10064300012596AD01120125BAAD011201258FAF27
:1006530001120125D0AF01120125F2AF01120125CC
:1006630073B0011201255DB10112012523B20112FC
:10067300012541CE0212012513CF02120125BCCF61
:1006830002120125FFCF021201258CD0021201258F
:1006930018D102120125F9D10212012528D2021222
:1006A300012524D3021201256CD3021201256ED435
:1006B30002120125B2D402120125D8D40212012557
:1006C30066A503120125EC8303120125028403129C
:1006D30001252884031201255085031201255A851B
:1006E30003120125B38603120125B38703120125E3
:1006F3008CE102120125C1E202120125F4E2021289
:1007030001253EE302120125FCE402120125529663
:1007130001120125B59601120125FA97011201254F
:100723000A98011201252D980112012578980112CA
:1007330001251D9901120125139A01120125DD9A44
:1007430001120125559C01120125979C01120125D7
:10075300359D01120125829D01120125A89D0112DB
:100763000125969F011201259B9F011201257CA162
:1007730001120125D0A10112012532A20112012586
:100783005AA201120125FEA201120125C0A30112E2
:100793000125F1A301120125F4A3011201253CA4B3
:1007A300011201257EA401120125E5A401120125F0
:1007B30044910312012557910312012570910312ED
:1007C3000125BB910312012596920312012525935E
:1007D30003120125709303120125B423001201258E
:1007E300C02300120125F923001201253E24001223
:1007F3000125F524001201257B2500120125E025A2
:10080300001201250C2600120125452600120125A0
:10081300592800120125352A00120125202C001227
:100823000125572D00120125B72F00120125A330F2
:1008330000120125E93100120125F63200120125CB
:100843001333001201254B330012012565330012C7
:100853000125CD330012012567380012012508391F
:100863000012012559390012012580390012012592
:10087300CE3900120125EC3900120125403A00124D
:100883000125193B00120125A03C00120125283D3A
:1008930000120125B2E602120125BCE6021201256F
:1008A30087E702120125A2E702120125C8E7021217
:1008B30001250CE80212012544E8021201256DE826
:1008C30002120125E6E802120125FBE802120125C6
:1008D30010E90212012547E9021201255BE9021220
:1008E30001258CE902120125C6E902120125F2E96C
:1008F3000212012548EA021201259CEA021201258F
:10090300E5EA021201250FEB0212012534EB021274
:100913000125008003120125CA8003120125AD8140
:100923000312012523820312012565820312012587
:1009330092830312012500800212012529800212ED
:100943000125428002120125878102120125658259
:10095300021201258482021201251183021201254C
:10096300548302120125A18402120125408502123B
:100973000125BF87021201255688021201252A8903
:10098300021201250C8A02120125788B021201251D
:100993000B8C021201250FA10312012578A103126A
:1009A3000125CCA103120125F3A10312012504F0B3
:1009B3000212012571F002120125BCF00212012579
:1009C300B1F102120125ADF20212012597F30212D1
:1009D30001254FAE0212012591AE021201256BAF24
:1009E3000212012544B0021201253FB10212012572
:1009F3001EB2021201258AB20212012551B302125C
:100A03000125BCB30212012523B4021201254EB401
:100A130002120125BFB40212012552B502120125AB
:100A2300BBB502120125D0B50212012518B6021278
:100A3300012531B60212012596B60212012599B697
:100A430002120125888B03120125B08B03120125A5
:100A5300EE8B03120125AC8C03120125178D0312B3
:100A63000125338D031201255B8D031201258B8D27
:100A7300031201259A8D03120125148E03120125F9
:100A83003A8E03120125D6C201120125B3C4011205
:100A93000125AEC60112012581C701120125CCC76C
:100AA3000112012517C80112012529C801120125C8
:100AB30069C8011201259EC801120125EAC8011265
:100AC300012519C9011201253CC90112012589C952
:100AD3000112012512CA011201251FCC01120125A1
:100AE3000ACE011201254DCE01120125B2CF01120A
:100AF3000125F3CF0112012566D001120125B2D0E1
:100B030001120125DDD001120125828C021201257B
:100B1300AD8C02120125949302120125B89502129D
:100B23000125739702120125D098021201258F3DEA
:100B330000120125263E001201256C3E00120125FC
:100B4300AB3F00120125424100120125BC410012B6
:100B53000125D741001201254C42001201257B4398
:100B630000120125D64400120125D84500120125A3
:100B73003547001201254E4700120125AB470012ED
:100B830001258D4800120125C04800120125304976
:100B930000120125AA4900120125F9490012012575
:100BA300C54A00120125CA4B00120125A94C0012A7
:100BB3000125344D00120125A24D00120125164EC8
:100BC300001201253F4E00120125FE4E00120125A1
:100BD300785000120125955000120125B4500012DF
:100BE30001254551001201256A5100120125925138
:100BF300001201250D520012012567520012012532
:100C0300BB53001201257854001201254B550012E5
:100C1300012507D10112012557D10112012563D105
:100C23000112012540D20112012570D201120125C2
:100C3300A8D20112012527D3011201255FD3011286
:100C43000125B1D301120125EED30112012513D6DB
:100C5300011201253FD8011201253ADA01120125BB
:100C630015DC01120125FD7F00120125A18201126D
:100C73000125EB8201120125CA88011201254B8A45
:100C830001120125AA9001120125A5910112012546
:100C9300E2910112012505920112012547920112E9
:100CA30001255092011201255A9201120125469302
:100CB300011201253A9401120125795500120125EB
:100CC300F15F00120125F75F00120125036700128F
:100CD3000125DAFC02120125D8FD021201252EFEA0
:100CE300021201256CFE02120125C9FE0212012522
:100CF30046FF021201254FFF021201255BFF02127C
:100D030001256EFF02120125AAFF02120125C0FF71
:100D13000212012559F40212012566F4021201257B
:100D230080F402120125BFF402120125FDF4021220
:100D3300012562F50212012577F50212012582F5DC
:100D4300021201258FF502120125A6F502120125D3
:100D5300B4F502120125BFF502120125CBF50212EB
:100D63000125DAF502120125E5F50212012508F63F
:100D730002120125B1F602120125C1F60212012564
:100D8300DBF602120125F8F60212012514F702120E
:100D9300012539F70212012543F70212012557F7FE
:100DA3000212012576F702120125D7F70212012557
:100DB300DDF702120125E3F702120125E9F702121A
:100DC3000125F5F70212012528F802120125DBDEC1
:100DD300011201255DDF0112012506E00112012543
:100DE3004EE1011201255CE30112012542E40112E7
:100DF300012577E40112012599E40112012542E559
:100E03000112012512E7011201253BE70112012519
:100E1300B3E701120125E5E701120125F2E701120B
:100E230001253DE80112012561E801120125B2EA1D
:100E330001120125BCEB0112012518EC0112012559
:100E430058B40112012569B5011201254DB60112ED
:100E5300012557B60112012579B60112012585B680
:100E63000112012529B80112012556B801120125E5
:100E73006CB901120125C1B90112012510BB011280
:100E83000125E5BB0112012541BC01120125ACBCC2
:100E930001120125E1BC0112012524BD0112012526
:100EA300EEBF0112012506C00112012597C00112F0
:100EB3000125A5C001120125F2C00112012500C1BF
:100EC300011201256CC101120125E7C1011201259F
:100ED3003EC201120125F39802120125159902124F
:100EE3000125269B02120125E59D021201250F9F74
:100EF30002120125CD9F02120125B9A0021201257C
:100F0300D29703120125F797031201256D98031257
:100F1300012524C7021201252DC70212012536C758
:100F2300021201250EC802120125BFC902120125B2
:100F3300EFC9021201251ACA021201254ACA021276
:100F4300012575CA02120125A9CA02120125D5CAB3
:100F53000212012518CB0212012543CB02120125EF
:100F63008ACB02120125DFCB0212012521CC02120A
:100F730001257BCC02120125A6CC02120125F5CC5A
:100F83000212012525CD0212012550CD02120125A1
:100F93007ECD02120125A1CD02120125EFA5031278
:100FA30001251BA60312012548A60312012552A6FB
:100FB3000312012562A603120125F3BE02120125C5
:100FC300FDBE021201253EBF0212012587BF021298
:100FD3000125C1BF0212012517C00212012538C025
:100FE30002120125E7C202120125F0C202120125F5
:100FF30044C3021201256DC30212012577C30212F5
:101003000125E5C30212012575C402120125D0C4CE
:1010130002120125FEC40212012586C50212012512
:10102300C5C502120125FAC5021201250CC602121A
:1010330001252BC60212012534C602120125F6C66C
:101043000212012526A303120125E19503120125AE
:101053001796031201254B96031201259897031245
:1010630001256CA60312012582A6031201258CA675
:10107300031201259E7F00120125A5F80212012506
:10108300B8F8021201257CF902120125BBF90212FC
:101093000125D8F90212012511FA021201255EFA7F
:1010A3000212012590FA02120125C7FA0212012544
:1010B300D69C03120125F99C03120125289D0312D6
:1010C3000125C09D03120125D89D031201251A9EF7
:1010D300031201252BA803120125D6A6031201250D
:1010E300BE6B001201259C6D001201253B6F00129F
:1010F3000125E66F00120125667000120125EB70D1
:1011030000120125147100120125EF74001201254C
:101113006675001201257D7600120125B77600124F
:101123000125F876001201253F78001201259578F4
:1011330000120125DE78001201254D7900120125E8
:10114300B97900120125EA7900120125027A001209
:1011530001251B7B001201252B7B00120125E17C5D
:1011630000120125F87C001201252A7D00120125B9
:10117300CC7E00120125607F001201251DA40312FD
:1011830001252EA4031201257FA703120125BEA763
:1011930003120125E5FF01120125CEA40312012547
:1011A300DEA403120125F6A4031201255CA5031294
:1011B300012524A203120125A9A2031201250DA3CF
:1011C30003120125639E031201258C9E0312012540
:1011D300F79E03120125489F03120125A39F0312C3
:1011E3000125828E03120125978E03120125AF8FED
:1011F300031201252390031201253D9003120125BB
:101203005090031201255E9003120125789003127A
:1012130001258F9003120125B990031201250F9127
:1012230003120125F0FF02120125BD8703120125D8
:101233004D8803120125D6880312012572890312F2
:101243000125038A03120125B38A03120125C18AEA
:10125300031201253F8B03120125528B0312012533
:10126300688B03120125728B03120125858B0312F0
:10127300012554F90112012529FA011201254AFA1F
:10128300011201252FFB011201255BFB0112012530
:1012930093FB01120125B9FB01120125CCFB0112BD
:1012A300012528FC011201254EFD011201255CFEDA
:1012B300011201256FFE01120125DD9F0312012595
:1012C3004BA00312012556A00312012566A00312A9
:1012D300012571A0031201258DA0031201253E9B58
:1012E30003120125909B03120125039C0312012580
:1012F300709C031201259A9303120125C4930312D0
:1013030001259394031201256F9503120125BDB6A0
:101313000212012589B702120125CAB7021201255B
:1013230004B80212012562B802120125B6B80212EE
:10133300012514B902120125AAB902120125B2BA74
:10134300021201253CBC02120125DABC021201255E
:1013530041BD0212012554BD0212012548BE0212ED
:10136300012591BE0212012565EC0112012597EFBB
:101373000112012528F1011201257FF10112012536
:101383009CF1011201251CF20112012598F30112AF
:10139300012567F401120125D4F701120125BEF8D6
:1013A300011201254DD50212012591D50212012505
:1013B300A8D9021201252ADA0212012549DB0212F9
:1013C30001254CDB02120125D0DB0212012518DCBA
:1013D300021201255DDC021201257ADC02120125CD
:1013E300F2DF02120125CFE00212012553E10212BE
:1013F3000125FEA703120125C8A70312012555A83D
:10140300031201257DA803E066701008A3E066704F
:101413000A08A3E066700408A3E06622C3E79608FF
:1014230009E7960809E7960809E79622C3E09608B4
:10143300A3E09608A3E09608A3E09622C008C3E0C1
:1014430096F50808A3E096420808A3E09642080828
:10145300A3E09645087001D3D00822080808EAC023
:10146300E0EBC0E086F0E7A4FA180986F0E7A42AC7
:10147300FA180986F0E7A42AFA180986F0E7A42ADD
:10148300FA1986F0E7A4FBE5F02AFA190886F0E7D3
:10149300A42BFBE5F03AFA190886F0E7A42BFBE549
:1014A300F03AFA18180986F0E7A4C5F02BFBE43AE2
:1014B300FA1908E7C5F0C6A426F6E5F03BFBE43AC3
:1014C300FA1886F0E7A4F6E5F00826F6E43B08F6FA
:1014D300E43A08F6D0E0FBD0E0FA22E4CFC0E0E43F
:1014E300CEC0E0E4CDC0E0E4CCC0E075F020C3E6BC
:1014F30033F608E633F608E633F608E633F618184B
:1015030018EC33FCED33FDEE33FEEF33FFC3EC9702
:1015130009ED9709EE9709EF97191919400FFFEC99
:1015230097FC09ED97FD09EE97FE191906D5F0BE54
:10153300ECF709EDF709EEF709EFF7191919D0E000
:10154300FCD0E0FDD0E0FED0E0FF226016080808E2
:10155300C6C313C618C613C618C613C618C613C601
:10156300D5E0EA227009080808226016181818C680
:10157300C333C608C633C608C633C608C633C6D582
:10158300E0EA22E627F60809E637F60809E637F621
:101593000809E637F622E026F608A3E036F608A3A4
:1015A300E036F608A3E036F622E026F008A3E0369C
:1015B300F008A3E036F008A3E036F022C3E697F67E
:1015C3000809E697F60809E697F60809E697F6226A
:1015D300C3E096F008A3E096F008A3E096F008A312
:1015E300E096F022E056F608A3E056F608A3E0568C
:1015F300F608A3E056F622E056F008A3E056F008FA
:10160300A3E056F008A3E056F022E0F608A3E0F6C4
:1016130008A3E0F608A3E0F622E6F008A3E6F00844
:10162300A3E6F008A3E6F022E0FAA3E0FBA3E0FCC4
:10163300A3E0FD22EAF0A3EBF0A3ECF0A3EDF0228C
:10164300CAC0E0E6F0A308DAFAD0E0FA22CAC0E0A2
:10165300E0A3C582CCC582C583CDC583F0A3C58273
:10166300CCC582C583CDC583DAE6D0E0CA22C3E404
:1016730098F8E499F91216B28026C3E49AFAE49B27
:10168300FBE920E7E91216B2E498F8E499F922C3DA
:10169300E498F8E499F91216B2E498F8E499F9C3D6
:1016A300E49AFAE49BFB22EB20E7CFE920E7E0B9D9
:1016B3000010BB0008E88AF084F8AAF022E4FBC813
:1016C300FA22EB70227B10C833C8C933C9335007E1
:1016D300C39AC3DBF280069A50012ADBEAC833F4CB
:1016E300C8C933F4C9FA2275F008E4C833C8C9334A
:1016F300C933C99AC99B5004C92AC93BD5F0ECFB2D
:10170300C833F4C8E4C9FA22600D08C6A2E713C6B9
:1017130018C613C6D5E0F322600C08C6C313C61857
:10172300C613C6D5E0F422700422600D18C6C33375
:10173300C608C633C6D5E0F41822251810AF08F53D
:1017430018400215198008F51840021519D2AF2266
:10175300C0D0251810AF08F518500205198008F5F8
:101763001850020519D2AFD0D0222518F58210AF38
:1017730008F518400215198008F51840021519D20A
:10178300AF851983222518F582E43519F58322E400
:10179300732518C582C0E0E51934FFC583C0E0E5B1
:1017A30018C3958224F810AF0885831985821880A1
:1017B30008858319858218D2AFCEF0A3E520F0A364
:1017C3007808E608F0A3DEFAEFF0A3E58124FAF83F
:1017D300E608F0A3E608F0A3E608F0A30808E60885
:1017E300F0A3E608F0A315811581D0E0FED0E0F860
:1017F300158115811581E8C0E0EEC0E0222518C5EA
:1018030082C0E0E51934FFC583C0E0E518C39582C3
:1018130024F910AF088583198582188008858319F8
:10182300858218D2AFCEF0A3E520F0A37808E608AE
:10183300F0A3DEFAEFF0A3E58124FBF8E608F0A3BA
:10184300E608F0A30808E608F0A3E608F0A315816C
:101853001581D0E0FED0E0F815811581E8C0E0EEF7
:10186300C0E022851983851882E0A3FEE0A3F5205A
:101873007808E0A3F608DFFAE0A3FFE0A3C0E0E006
:10188300A3C0E0E0A3C0E0E0A3C0E0E0A3C0E01099
:10189300AF08858218858319800885821885831986
:1018A300D2AFD083D082020122851983851882E0CA
:1018B300A3FEE0A3F5207808E0A3F608DFFAE0A38F
:1018C300FFE0A3C0E0E0A3C0E0E0A3C0E0E0A3C06A
:1018D300E010AF08858218858319800885821885F2
:1018E3008319D2AFD083D08222C0D02518C582C03D
:1018F300E0E51934FFC583C0E0E518C3958224F3FE
:1019030010AF08858319858218800885831985821D
:1019130018D2AFC8F0A3E9F0A3EAF0A3EBF0A379E0
:1019230008E709F0A3D8FAECF0A3EDF0A3EEF0A3D7
:10193300EFF0A3D0E0F0A3D0E0F0A3D0E0F0A3E574
:1019430020F0A3E5F0F0A322851983851882E0C077
:10195300E0A3E0F9A3E0FAA3E0FBA37808E0F6082C
:10196300A3DFFAE0FCA3E0FDA3E0FEA3E0FFA3E016
:10197300C0E0A3E0C0E0A3E0F5D0A3E0F520A3E03E
:10198300A3F5F010AF088583198582188008858335
:1019930019858218D2AFD082D083D0E0F8D0E0325C
:1019A30074048006740280027401C0E0F404121708
:1019B3006DD0E0121643227404800474028000CCBC
:1019C300C0E0EDC0E0E518C39CCCAD1950011D107B
:1019D300AF068C188D1980068C188D19D2AF12168C
:1019E30050D0E0FDD0E0FC22D083D082E9C0E0E417
:1019F30093A3C386F0C5F095F0F908E493A386F0AA
:101A0300C5F095F0700BE493A3C3994005E90480F6
:101A130002A3E475F002A42582F582E5F03583F58F
:101A230083D0E0F9E493A3C0E0E493C0E022D08341
:101A3300D082ECC0E0EDC0E0E493A3FCE493A3FD0B
:101A4300ED4C600D121A7DEC24FFFCED34FFFD809C
:101A5300EFE493A3FCE493A3FDED4C600D121ABCD9
:101A6300EC24FFFCED34FFFD80EFD0E0FDD0E0FC83
:101A7300E493A3C0E0E493C0E022C0E0C3E4939600
:101A8300087401939618400FE49366700808740174
:101A930093661870007019A3A3C3E49396087401A6
:101AA300939618A3A3400DD0E0D0E0D0E0021A6DC6
:101AB300A3A3A3A3A3A3D0E022C0E0C0F088F0E4D3
:101AC300936670080874019366187000A8F0A3A3C6
:101AD300700BD0F0D0E0D0E0D0E0021A6DA3A3D019
:041AE300F0D0E0223D
:101AE80074F5121800EAFEEBFFEE2434F8EF340028
:101AF800F988088909EE2435F582EF3400F583E08A
:101B0800F8EE2437F582EF3400F583E0F50AEC852A
:101B18000AF0A4FCAAF0850AF0EDA42AFDE82CF846
:101B2800E43DF97A257B001216B2EA850882850918
:101B380083F05407F87401B800028004C333D8FC5A
:101B4800C0E0E0131313541FF8EE28F8EF3400F93F
:101B5800E8245DF582E93400F583D0E0F8E05860C8
:101B680008EE2434F582EF801EEE2436F582EF3439
:101B780000F583E0F5F0EA84A8F0EE28F8EF3400E9
:101B8800F9E82438F582E93400F583E0F97F0402A6
:101B980018AC74F5121800EAFEEBFFEE2434F58257
:101BA800EF3400F583E0C0E0EE2435F582EF340031
:101BB800F583D0E0F08E828F83A3A3A3A3A3A3A36E
:101BC800C082C0838E828F83A3A3A3A3A3E0F8A3BC
:101BD800E0F9D083D082E0C398F508A3E099F5092D
:101BE800EE2480F582EF3400F583E064017069EE3D
:101BF8002481F582EF3400F583E0F8A3E0F98E82C2
:101C08008F83A3A3A3A3A3A3A3E0FCA3E0FD8E82D9
:101C18008F83A3A3A3A3A3E0FAA3E0FBC3EA9CEBEF
:101C28009D5027C3EC98ED99402EC3EA98EB995044
:101C3800277CFD7D04EEFAEFFB120BC4EE2480F541
:101C480082EF3400F583E4F0800EC3EA98EB994004
:101C5800E0C3EC98ED9950D9EE2434F8EF3400F94C
:101C6800E8FCE9FDEE2435F582EF3400F583E0F871
:101C7800EE2437F582EF3400F583E0F50AE50885B0
:101C88000AF0A4F508AAF0850AF0E509A42AF509DE
:101C9800E82508F8E43509F97A257B001216B2EA36
:101CA8008C828D83F05407F87401B800028004C355
:101CB80033D8FCC0E0E0131313541FF8EE28F8EFF4
:101CC8003400F9E8245DF582E93400F583D0E0F8C2
:101CD800E0586008EE2434F582EF801EEE2436F5D5
:101CE80082EF3400F583E0F5F0EA84A8F0EE28F8F6
:101CF800EF3400F9E82438F582E93400F583E0F997
:101D08001222B0021B95C082C08385188285198370
:101D1800E0F8A3E0F9C3EA9CEB9D5012C3EC98ED00
:101D2800994019C3EA98EB99501279018010C3EAD7
:101D380098EB9940F5C3EC98ED9950EE7900D08373
:101D4800D08222EAC39CFAEB9DFB2200852187857D
:101D580022C622C0E0C0D0E8C0E0E9C0E0EAC0E0A6
:101D6800EBC0E0ECC0E0EDC0E0C008C009C00AC0AC
:101D78000BC082C083C0F0759B00906182E0A2E630
:101D88004003021E39E591A2E64003021E3975910F
:101D9800BF9003C2E064057008120CF0120CFC80BE
:101DA80003120CF6752100120D50E99003C3F07967
:101DB80000120D44120B3A7A017B009003C1E0F93E
:101DC80012101A907803E064426003021E829005A4
:101DD8005FE014F06003021E82C2AF121DE60078B5
:101DE8002AD0E0F618D0E0F6E59F5407F970059080
:101DF80082468003908242780812160DE9C4C0E03A
:101E08007829E65508F50808E65509F509740B78A8
:101E18000812171BD0E02508F8906270E0A2E7408E
:101E2800F8E8C333906272F0906270E0D2E0F0801C
:101E380049E0A2E55024E591A2E5501E7591DF9096
:101E480003C2E0640D70139003E4E004F0642870AA
:101E580002E4F07A00E0F9120DC2906181E0A2E399
:101E68005009E5E9A2E3500375E9F7A3E0A2E750BA
:101E780009E591A2E7500375917FD0F0D083D08215
:101E8800D00BD00AD009D008D0E0FDD0E0FCD0E0DB
:101E9800FBD0E0FAD0E0F9D0E0F8D0D0D0E032C002
:101EA800E0C0D0C082C083906183E0A2E05009E521
:101EB800BFA2E0500375BFFEE0A2E15009E5BFA252
:101EC800E1500375BFFDE0A2E25009E5BFA2E25070
:101ED8000375BFFBE0A2E35009E5BFA2E350037519
:101EE800BFF7E0A2E45009E5BFA2E4500375BFEFD5
:101EF800E0A2E55009E5BFA2E5500375BFDFE0A207
:101F0800E65009E5BFA2E6500375BFBFD083D08273
:101F18008088C0E0C0D0E8C0E0E9C0E0EAC0E0EBFB
:101F2800C0E0ECC0E0EDC0E0C0F0E5A7A2E6500FCD
:101F3800E5A1A2E6500953A7BF75A1BF121F7FE50F
:101F4800A7A2E5500CE5A1A2E5500653A7DF75A1AD
:101F5800DFE5A7A2E15009E5A1A2E1500375A1FDC3
:101F6800E5A7A2E2500CE5A1A2E2500653A7FB7533
:101F7800A1FBD0F0021E9074F81218007521019090
:101F880003C2E064067015120C908A828B83A3A3A7
:101F9800A3A3A3A3E0FAA3E0FB120CDEA2AFE433F1
:101FA800FED2AF9003C8E0640170187A207B0090DD
:101FB80003C1E0F912109E7A207B009003C1E0F97A
:101FC800121020906182E0D2E6F090055EE0602178
:101FD80085C62280169003C7E064017008E5C654E0
:101FE800F84405F5C653BEFC121D54740165216002
:101FF800E4EEA2E092AF7F010218AC008E238F249A
:10200800858228858327851882851983E0CEA3E0F9
:10201800CF852882852783EBC9EAC8EDCBECCA7542
:10202800F010C3E833C8E933C9EA33CAEB33CBC38A
:10203800EA9EF526EB9FF525B35004AB25AA26ECBE
:1020480033CCED33CDD5F0DAAE23AF242274F112C0
:1020580018008A088B098C0A8D0B740F1217887860
:102068000C12160D9081FA78081215E79081FA780B
:102078000C1215E77808790C12141F501578087996
:102088000C1215BF9081D2780812143F40157901BF
:102098008013780C79081215BF9081D2780C12142D
:1020A8003F40EB79007F080218AC74ED1218008AE3
:1020B800088B098C0A8D0B7413121788780C12166A
:1020C8000D9081FA78081215E79081FA780C1215AC
:1020D800E7780C790812141F40117808790C12154A
:1020E800BFAA08AB09AC0AAD0B80227510007511A8
:1020F800007512007513017810790C1215BF78104D
:102108007908121586AA10AB11AC12AD137F0C0218
:1021180018AC9081FA780812160D8A828B83780899
:102128001215FA7F040218AC74F51218008C828D0F
:1021380083780812160D8A828B8378081215D3EAE1
:102148002404F8EB3400F98C828D83A3A3A3A3E0C5
:10215800FCA3E0FD88828983C3E09CF0A3E09DF0A6
:1021680088828983C3E09420A3E0944E4022908122
:10217800E6780812160D8A828B8378081215AC8AC5
:10218800828B83A3A3A3A3E02420F0A3E0344EF022
:10219800808074F5121800E9FE900514E0FAA3E0B7
:1021A800FBEEC333F8E433F974D528F5827480392B
:1021B800F583E02AF508A3E03BF50978081219A78A
:1021C8009081E212162B12200474021217538A0807
:1021D8008B098C0A8D0B7410780812154EAA08AB5F
:1021E800097F040218AC74F11218008A0C8B0D8C4C
:1021F8000E8D0F740F121788E0FAA3E0FB7411120A
:102208001788E0F508A3E0F5097413121788E0FEB3
:10221800A3E0FF78081219A7EA2401F508EB3400B7
:10222800F509E4F50AF50B780C790812145E90812B
:10223800C2780812160D780C790812145EAA0CAB35
:102248000DAC0EAD0F12200474021217538B09EA5D
:10225800450960047A0180027A00EC2AFCED34001A
:10226800FDECF8EDF97A717B021216B2880889093B
:10227800E4F50AF50B8E828F83780812161CECF8A9
:10228800EDF97A717B021216B28A088B0974057807
:102298000812172A8E828F83A3A3A3A3E508F0A3AD
:1022A800E509F07F080218ACC082C083E99060009D
:1022B800F0D083D08222C0E074F21218ECA2AFE40E
:1022C80033FED2AFC2C0E5D1A2E4500653D1EF121B
:1022D800126CEEA2E092AF7F0102194BC0E074F2DB
:1022E8001218ECA2AFE433FED2AFE589A2E15003A5
:1022F8001211DC758900C2C5EEA2E092AF7F01021F
:10230800194BC0E074F21218ECA2AFE433FED2AF5E
:10231800E58BA2E050031211DC758B00C2E880D86F
:10232800C0E0C0D0E8C0E0E5A8D2AFC2C7A2E7923B
:10233800AFD0E0F8D0D0D0E032C0E0C0D0E8C0E004
:10234800E9C0E0C008C009C082C083A2AFE433F985
:10235800D2AF9009E0E0F8A3E0687008539AFBA3B5
:1023680074018026C2E99009E0E0F50874012508A7
:10237800F074602508F58274093400F583E0F5C12E
:102388009009E0E0C394804002E4F0E9A2E092AF53
:10239800D083D082D009D008D0E0F9D0E0F8D0D0EE
:0323A800D0E03250
:1023AC00FFFFFFFFFFFFFFFFC082C083E9900BFB25
:1023BC00F002263874F7121794E99002E0F07C18BA
:1023CC007D037AFF7BFF12086A9002E174FFF0A391
:1023DC00F0A3E4F0A3F079051207F29002E0E0F923
:1023EC0012071A7A887B08120A4A02334674F412CE
:1023FC0017948A088B09EB548060309002E0E0F966
:10240C001210028A0A8B0BAE0AAF0BEE4F60138EC2
:10241C00828F83E064B0700312080AEEFAEFFB12AD
:10242C000FF0AA08E5096480FB80047A007B0002A7
:10243C00260774F212179474FC12173DEAFEEBFF98
:10244C00741212178812382DEE4F70030224E174A7
:10245C0002121788EEF0A3EF122842ECF0A3ED1253
:10246C002842AA82AB83120714E9F50A706AE508C0
:10247C00450960648E828F83123813EE4F60567A52
:10248C00067B001210568A0C8B0DA80CA90DE8497E
:10249C007005750A13804188828983E41224EEEE5C
:1024AC00F0A3EF12383EE508F0A3E509F09002E640
:1024BC001225759002E670051232F0801B1232DE86
:1024CC008003EAFCEBFD8C828D8312257570F38CF6
:1024DC00828D8380E3750A02A90A740412175302D1
:1024EC003A2DF0A31237E4A32274F2121794890A3E
:1024FC00E975F017A4FEAFF09002E5E4F09002E36A
:10250C00122575600A12105C9002E3E4F0A3F0EE61
:10251C00FAEFFB1210568A088B09EA4509602FEE78
:10252C00FCEFFD7900120FD89002E3E508F0A3E56B
:10253C0009F07B00800812255FE4F0A3F00BEBC3DD
:10254C00950A40F2E50A9002E5F0790080027913D1
:10255C00023A2DEB75F017A4F8A9F09002E3E028ED
:10256C00FAA3E0398A82F58322122F82EA4B227475
:10257C00F4121794740C121788123808FEE9FF75C0
:10258C000800750900800CE5082401F508E50934FC
:10259C0000F509C3E5089CE5099D503285080A85BC
:1025AC00090B7403780A12172AEA250AF8EB350B83
:1025BC00F988828983A3A3A3A3A3A31233C5EE65D1
:1025CC000A7003EF650B70BFE8FAE9FB80047A0030
:1025DC007B00802774F41217947900EAA2E0501B58
:1025EC007508AC75098178081219A77C047D007AEE
:1025FC00FD7B0B1207EC74021217537F0402186652
:10260C00C082C0839002E612263F601C88828983B8
:10261C00A3A3E06A7003A3E06B8882898370E8A3AC
:10262C00A3A3A3122F7E80047A007B00D083D082D8
:10263C00020122123B13E8492274EE12179474FC27
:10264C0012173DEAFEEBFF851882851983E4F0A38F
:10265C00F0EE24021232D0EE24051237EBEE2404F5
:10266C00F50EEF122BF7E024FE603924FC604624B3
:10267C00FE605224FE605E24FE700302275824FE86
:10268C0070030227BC24FE70030227CB24FE7003C8
:10269C000227DA24FC70030227E924FE70030227C8
:1026AC00F80228359002FF7417F0A3E412284A129E
:1026BC000492022835851882851983AC82AD831269
:1026CC000810022805851882851983AC82AD831207
:1026DC000816022805850C08850D09740212178846
:1026EC00AC82AD83850882850983122F7E12073850
:1026FC008A0C8B0DAC0CAD0DEC4D603BE4F50CF580
:10270C000D780C1219A7750CFF750D02780C1219A7
:10271C00A7750C00750D03780C1219A77408121705
:10272C00881219BE123C8F121753E9F50C700B125C
:10273C002F741204AA800F750C01850882850983F9
:10274C001228381232F0850C08022808740212176D
:10275C0088AC82AD83850C82850D83122D49603C3B
:10276C00850C82850D83A3A31219BE7510FF7511FC
:10277C000278101219A77510007511037810121930
:10278C00A774081217881219BE123C8F121753E93E
:10279C00F509700B122F741204B0800F75090185A6
:1027AC000C82850D831228381232F0850908804C72
:1027BC00851882851983AC82AD8312081C803A85FA
:1027CC001882851983AC82AD83120822802B851860
:1027DC0082851983AC82AD83120828801C851882EF
:1027EC00851983AC82AD8312082E800D85188285E5
:1027FC001983AC82AD83120834E9F508E508602929
:10280C008E828F83A3E06414601F850E82850F83F4
:10281C00E09002FF122842123B0F9003001232F09C
:10282C00E508A312284A12048C0231DF123B1385EF
:10283C00188285198322F085188285198322F07CF1
:10284C00FF7D02850A82850B83122F822274EE1281
:10285C00179474FC12173D8A0A8B0B8C0E8D0FEAA1
:10286C002405F508EB3400F5097C157D0079007A18
:10287C00FF7B02120FD8E5082402F50CE50912378C
:10288C00EE85188285198385821085831178101244
:10289C0019A7850882850983A3A3A3A3122D40122F
:1028AC0019A7E5082405F510E5093400F511781091
:1028BC001219A7850C82850D83123095120732747C
:1028CC00061217538A108B11AE10AF11E50A2402B1
:1028DC00F50AE50B1232D3EE4F7003022A1780175C
:1028EC007402121788122F7E88828983EAF0A3EB78
:1028FC00F09002FFE004F09002FFE0C39405400367
:10290C00022A17E4F510F51178101219A77510E8C2
:10291C0075110278101219A77510E975110278104B
:10292C001219A774061217881219BE7910EEFCEF53
:10293C00FD123C91121753E9705E8508828509835C
:10294C00A3A3A3A3A3A3A3E0F89002E8E0687048B4
:10295C00122D401219A77CE97D02E5082408FAE53E
:10296C00093400FB120FD27402121753E960298E3E
:10297C00828F83A3A3A3A3122F7E9002FFE0F510F6
:10298C007402781012172A74002510F5827403351E
:10299C0011F583EAF0A3EBF074021217888582100C
:1029AC0085831178101219A774021217881219BE98
:1029BC00850C82850D83122FA41217538A108B114C
:1029CC00AE10AF119002FFE0F51075110074027893
:1029DC001012172A74FF2510F874023511F9888229
:1029EC008983A312257570030228E3E824030808E1
:1029FC0008E93400F9EE4F60030228EC88828983E1
:102A0C0074FFF0A3F09002FFE004F09002FFE0608E
:102A1C000A122F7412049E7900800B850882850996
:102A2C00831232E7790A0231DF74EA12179474FECA
:102A3C0012173D8C128D13EA2405F50CEB123C7920
:102A4C00123817750800750900EA2402F510EB34EA
:102A5C0000F51185188285198385820A85830B7888
:102A6C000A1219A7850C82850D83A3A3A3A3122C8C
:102A7C000D1219A7E50C2405F50AE50D1232D378D1
:102A8C000A1219A7850C82850D83122C111207329C
:102A9C0074061217538A0A8B0BEA450B7003022B30
:102AAC00B2EA2404F50EEB122BF71238178A828B3C
:102ABC0083A3A3A3E0F9851082851183122F88606C
:102ACC0003022BB2E4F514F51578141219A775143A
:102ADC00E875150278141219A77514E975150278A2
:102AEC00141219A774061217881219BE7913AC0A9E
:102AFC00AD0B851082851183123C97121753E9F5A3
:102B0C00096003022BB29002E8E0F8E5087009E0D6
:102B1C002402900300F08014900300E0FCE82402EF
:102B2C00FAE43400FBEA6C7001EB707E850882AA33
:102B3C0082122D379414122D2F506B850E82850F17
:102B4C0083E0C0E074012A122BEED0E0F00508857A
:102B5C000E82850F83A3E0C0E085080A7401250A64
:102B6C00122BEED0E0F005089002E8122C0D121991
:102B7C00A77CE97D0285080A7401250A122C011232
:102B8C0017539002E8E02508F50874FF6E70037483
:102B9C00FF6F6012EE24010EEF3400FFE508C394C2
:102BAC00145003022A5FE5086013122F92851082DD
:102BBC00851183122F7E1204A479008014E509700C
:102BCC000375090A851282851383EEF0A3EFF0A931
:102BDC000974021217537F0E02186685080C7401D3
:102BEC00250CF58274033400F583223400F50F852F
:102BFC000E82F58322FA74033400FB120FC07402A8
:102C0C002212384D22A3A3122C17221232DEFDEE13
:102C1C00FAEFFB2274EE12179474FE12173D8C0E11
:102C2C008D0FEA2405F50CEB1237EE750B009002B4
:102C3C00FFE4F0F50AEA2402F508EB3400F509800C
:102C4C00449002FFE0FA9002E8E0F8122D37941756
:102C5C00122D2F400D9002FFE0F87416C3989002CD
:102C6C00E8F0122D401219A77CE97D0274002AFAB3
:102C7C007403122C041217539002E8E0F89002FF30
:102C8C00E028F0050AE50C2416F582E50D122BF26E
:102C9C00E0F8E50AC39850749002FFE0C394165014
:102CAC006BE50AC333F8E433F9E50C28FEE50D397E
:102CBC00FF851882851983AC82AD838E828F831237
:102CCC002D497008750B011232E38050E4F510F5B4
:102CDC001178101219A77510E875110278101219D5
:102CEC00A77510E975110278101219A7740612173E
:102CFC00881219BE7916850882850983123C9712B1
:102D0C001753E9F50B7003022C4D80BB7CFF7D0241
:102D1C00850882850983122F7E1204B6A90B7402D2
:102D2C000231E1E99400C365D03322EA28F8E43497
:102D3C0000F9E822E0F5107511007810221231D656
:102D4C008A108B11AC10AD11EC4D2274EA12179451
:102D5C0074FC12173D8A0C8B0D8C128D13EA240512
:102D6C00F50AEB1232D3750800750900E50A240246
:102D7C00F510E50B3400F511740212178885820EDC
:102D8C0085830F780E1219A7850A82850B83A3A35E
:102D9C00A3A31237F31219A7E50A2405F50EE50BC8
:102DAC003400F50F780E1219A78510828511831245
:102DBC0032D9122F7812073274061217538A0E8BDF
:102DCC000FAE0EAF0FE50C2402F50EE50D3400F539
:102DDC000F80388882898374FFF00508122BE77402
:102DEC00FFF005089002E8E0F50C750D00780C1268
:102DFC0019A77CE97D0285080C7401250C122C01A5
:102E0C001217539002E8E02508F508EE4F60278E64
:102E1C00828F83A3A3A3E0F9850E82850F83122FE3
:102E2C0088EE24041237EBE96027850C82850D832C
:102E3C00122F6A1232F0E5087003022F50122F92F3
:102E4C00850E82850F83122F7E1204BC7900022F0F
:102E5C0065E4F514F51578141219A77514E87515B1
:102E6C000278141219A77514E97515027814121941
:102E7C00A774081217881219BE7911EEFCEFFD85A4
:102E8C000E82850F83123C97121753E9F509709A3D
:102E9C00850882AA82EA9002E87009E02404900373
:102EAC0000F08025E0F8900300E0F514E82404FC21
:102EBC00E43400FDEC65147001ED7081122D379433
:102ECC0012122D2F4003022E49850C82850D83E0B2
:102EDC00C0E074012A122BEED0E0F00508850C82BC
:102EEC00850D83A3E0C0E0122BE7D0E0122FAD8557
:102EFC00820C85830D780C1219A774041217881292
:102F0C0019BE851082851183122FA41217538A0CB7
:102F1C008B0DAE0CAF0D85080C7401250CF87403E9
:102F2C003400F9EE4F7003022DDF8518828519836A
:102F3C00E088828983122FADA3E0C0E0122BE7D08A
:102F4C00E0022DEDE509700375090A850A82850BEF
:102F5C0083122F6A1232F0A9097404022BDF123B80
:102F6C0013851282851383227CFF7D02850A82855C
:102F7C000B83122F8222E0FAA3E0FB22122F821283
:102F8C000720E9F50922900300E0F5F0E5088490AC
:102F9C0002FFF07CFF7D0222122C1712073E7404F4
:102FAC0022F005088518828519832274EC12179477
:102FBC0074FE12173D8A088B098C0E8D0FEA2405BE
:102FCC00FEEB3400FF1231C0EE24181237EBEA4549
:102FDC000B70030230631231A950291230888A1009
:102FEC008B11EA4511606B7912AC0AAD0B85088226
:102FFC00850983122F7E851082851183121792E921
:10300C00F50A7058E4F50AF50B780A1219A78E82A6
:10301C008F83A3A3E0F50A780A1219A7EE240312F2
:10302C0032D0780A1219A78E828F8312309512082B
:10303C00587406121753E9F50A7021850C82850D18
:10304C0083E0701F850882850983122F7E1204C2CB
:10305C008011750A0E8009750A018004E50A600367
:10306C001232E3850C82850D83E0600479008002C6
:10307C00A90A74021217537F0C02186685188285F0
:10308C001983122F82120846221232DEFD85088225
:10309C00850983122F822274EE12179474FE121774
:1030AC003D8A088B098C0C8D0DEA2405FEEB34004F
:1030BC00FF750E001231C0EA450B70030231871206
:1030CC0031A9502C1230888A0E8B0FEA450F604ABA
:1030DC007912AC0AAD0B850882850983122F7E8587
:1030EC000E82850F83121792E9F50E600302318A66
:1030FC008508828509831233C5AA0AFB12319B709D
:10310C00147AFF7BFF12319B606C88828983E50AFD
:10311C00F0A3E50BF0750A008007750E0E805F05B5
:10312C000A9002E5E0FAE50AC39A504AE50A75F0FE
:10313C0017A4FAABF088828983A3A3E02AFAA3E050
:10314C003BFB8A828B831232D9EC4D70D2750A17F5
:10315C00750B00780A1219A7EEFCEFFD120FC07464
:10316C0002121753EEFCEFFD850882850983122F9E
:10317C007E1204C88014750E098003750E01123B73
:10318C000B850C82850D831232F0A90E022D2A12AA
:10319C00083A8A108B11A810A911E84922E50824D5
:1031AC0002F508E5093400F5098A828B83A3A3A3F1
:1031BC00E0A2E522851882851983AC82AD838E82CC
:1031CC008F831231D68A0A8B0B22E0FAA3E0FB1212
:1031DC0007382274041217537F0A02186674EC1213
:1031EC0017948C108D11EA2405F50CEB1237EE7543
:1031FC000F00EA2402F50AEB1232D3850A82F5831A
:10320C00122F7E123D1D70030232C5750E008071A7
:10321C00850C82850D83E06401704F8E828F83A3B1
:10322C00A31219BE8E828F83A3A3A3A3E0F51275FC
:10323C00130078121219A7EE2405F512EF3400F5DD
:10324C001378121219A7122F781208587406121735
:10325C0053E9F50F6014850C82850D83E4F0123B65
:10326C000B8510828511831232F07C177D0079005A
:10327C00EEFAEFFB120FD88E828F83E4F0A3F005E9
:10328C000E9002E5E0F8E50EC398501EE50E75F0C1
:10329C0017A4F8A9F0850882850983A3A3123C839F
:1032AC001232D9EC4D600302321C850882850983E9
:1032BC0074FFF0A3F0E50F7006122F781204CEA95C
:1032CC000F023083F50AEF3400F50B22A31232DE25
:1032DC00FD22E0FCA3E0228E828F83123B13850E2D
:1032EC0082850F83E8F0A3E9F022C082C0839002AC
:1032FC00E1E06A7003A3E06B70067AE17B02800464
:10330C007A007B0002263874F71217947F00EF7551
:10331C00F003A4F8A9F0EC28F8ED39F98882898338
:10332C00E06A7003A3E06B7006E8FAE9FB800B0F10
:10333C00EFC3940240D87A007B007F0102186674B8
:10334C00F61217941238FC70067A007B008007A3E3
:10335C00A3A3A3122F7E0239BD74F2121794E9FEB7
:10336C00740E1217881233C5741012178812382D68
:10337C008C828D83E06402703BA3123B0F888289A0
:10338C0083E0F50CA3E0F9A80C74026870037429AF
:10339C00697021750C02750D00780C1219A778084C
:1033AC001219A7780A1219A7EEF912087C740612E2
:1033BC00175380027901023A2DE0F50AA3E0F50BD0
:1033CC002274E812179474FB12173DE98518828554
:1033DC001983F08A168B178C0E8D0F741F12178899
:1033EC0012382D74211217881233C57423121788C2
:1033FC001238177510008C828D83A3A3A3E0A2E46E
:10340C00502A741D12178812308E8A828B83E582A3
:10341C00458370030234D9790AAC0EAD0FAA16ABF2
:10342C0017121792E9F51060030234DC850E8285C1
:10343C000F83E064026003023792A3123B0F8508EE
:10344C0082850983A3858212858313E50E2406F5F4
:10345C000CE50F1237EE88828983E0FAA3E0F9EAD3
:10346C002400F514E439F5157814121A3101000012
:10347C00280128A1340700022878350328E83400F5
:10348C0029A2360129CA36022971360329A236042B
:10349C002933379237EE4F703E850C82850D83129F
:1034AC003808FAE9FB8A828B83E0850A82850B83D4
:1034BC001238441219A78A828B83A31232DEFDAA1A
:1034CC0008AB09120FC07402121753800375100E4B
:1034DC00A9107405023C7175100B80F4EE4F70F757
:1034EC00850A82850B837401F012381D850882854C
:1034FC000983F07C007D00850E82850F83A3A3A336
:10350C00A3E02401FAA3E03400FB120738EA4B6075
:10351C00418A828B83E02402F8850A82850B83E042
:10352C0028F0EA2404F8EB3400F988828983E085DA
:10353C0012828513831238561238441219A78A82C4
:10354C008B831232D8E5082403FAE5093400FB0218
:10355C0034CF850A82850B83E02404F07C047D0043
:10356C007900AA12AB13120FD80234DCEE4F6003B1
:10357C000234E312381DFEA3E0FF850A82850B831B
:10358C007404F0EE850882850983F0EF851282853C
:10359C001383F07403121788AC82AD83EEFAEFFB41
:1035AC001238EA700302364E8A828B83A3A3123838
:1035BC0013740112178885820E85830F780E1219E9
:1035CC00A774051217881219BE7CFF7DFF12073EE7
:1035DC0074041217538B0FEA450F7033850C8285D8
:1035EC000D831237F31219A7850C82850D83A31254
:1035FC0019BE7C027D007A737B8212056A740412F8
:10360C001753E9700A740112178874FFF0A3F08E37
:10361C00828F83E064027034750C02750D00780C97
:10362C001219A78E828F831232D8E5082404FAE58A
:10363C0009122C04121753850A82850B83E024028D
:10364C0080097401121788EEF0A3EFF074011217C1
:10365C0088123804F07401121788A31237FCA3A344
:10366C00A3F00234DCEE4F60030234E3850C828558
:10367C000D831232D9AA16AB17120870850A8285EF
:10368C000B837402F0EA850882850983F085128227
:10369C00851383EB80CBEE4F60030234E312381DAD
:1036AC00F8A3E0F9850A82850B837402F0E885089B
:1036BC0082850983F0E985128285138380A3850CAA
:1036CC0082850D83122F7E120FBAEAFC8C82A8829F
:1036DC00C39EE49F404BE86E7001EF70047C008049
:1036EC001F851882851983E0FAEE2AFAEF3400FB65
:1036FC00C3EA98EB94005003E08004EECCC39CFC2E
:10370C00EC850A82850B83F08C0A750B00780A1203
:10371C0019A7850C82850D83E02EFCA3E03F0234B3
:10372C00CA7510070234DCEE4F60030234E3850CDB
:10373C0082850D83123B0F850A82850B837407F0FB
:10374C00888289831237FC1237E4E0851282851354
:10375C0083F0E82402FAE93400FB8A828B83123767
:10376C00FC123835123804A312383E12380DF0E82A
:10377C002405F8E93400F98882898312380DA312E4
:10378C003856A302366A741D1217881238F5700366
:10379C000234D9123B0F880C890DE8450D700302D9
:1037AC0034D98E108F1178101219A7780A1219A714
:1037BC0078081219A77406121788E0F9AC0EAD0F31
:1037CC00AA16AB17850C82850D83121792740612FC
:1037DC001753E9F5100234DCF088828983A322F5B3
:1037EC000CEF3400F50D22E0F50E750F00780E226B
:1037FC00E08508828509832212385D22123B13E88A
:10380C002212385DA3A322A3A3A3A3E0FEA3E0FF8F
:10381C0022850C82850D83E0F8A3E0F5838882E095
:10382C0022E0F508A3E0F50922A3A3F08A828B839A
:10383C00A3221224F0A3A322F08A828B8312384D88
:10384C0022E0F50A750B00780A221237E412385D73
:10385C0022E0850882850983A3A32274EE121794B3
:10386C0074FE12173D8A0A8B0BECFAEDFB741412E2
:10387C001788E0F510A3E0F5117416121788E0FE16
:10388C007418121788E0F50EA3E0F50F85188285E1
:10389C001983AC82AD831238EA603E851882851993
:1038AC00831238F5602FA3A312382DE50845096063
:1038BC0024780E1219A778101219A7EEF9AC0CADDA
:1038CC000DAA0AAB0B850882850983121792740422
:1038DC001217538006790E80027901022D2A1207E5
:1038EC00388A0C8B0DEA450D22122F821238FC22DD
:1038FC001208048A828B83E58245832274F61217A0
:10390C009474FE12173D740C12178812380885181F
:10391C0082851983F07401121788E9F0E4F508F533
:10392C000978081219A775080278081219A77404E7
:10393C0012178885820885830978081219A712083E
:10394C005874061217537402121753806474F712CA
:10395C001794EAFEEBFF89087C187D03120870EAC5
:10396C005402600BA908EEFAEFFB12072C800279C7
:10397C000102334674F612179474FF6A700374FFD5
:10398C006B701C7B00EB75F003A4F8A9F0EC28F825
:10399C00ED39F91239C20BEBC39402501480E612C4
:1039AC0008408A088B09A808A909E849600312395C
:1039BC00C27F020218668882898374FF1224EEE4A7
:1039CC00F02274F61217941208408A828B83E582D7
:1039DC0045836006A3A3E0FA80027A007B0080D1C5
:1039EC0074F21217948A088B09ECFEEDFF740E1218
:1039FC001788E0F50A123A32701CEEFCEFFD7AFFE4
:103A0C007BFF123A3270047911801688828983E523
:103A1C0008F0A3E509F088828983A3A3E50AF0796D
:103A2C00007F060218661208408A0C8B0DA80CA9A0
:103A3C000DE8492274EE121794EAFEEBFF8C088D08
:103A4C0009890C7412121788123B0F741412178800
:103A5C001232D97416121788122F7E750D00EC4D88
:103A6C006003023B037402650C6003023AFE888219
:103A7C0089831232DEF9EC2400F50EE439F50FEAF5
:103A8C00F4F8EBF4F9EC58F8E50F59F9E849705DE6
:103A9C00E5082406F8E5093400F9880A890B8882C0
:103AAC00F583122C131208708A108B11E50E651019
:103ABC007004E50F65116042780E1219A7850A8211
:103ACC00850B83122C131208767402121753E9F526
:103ADC000D7027780E1219A7850882850983A3A378
:103AEC00122C1112088E7402121753800D750D8052
:103AFC008008750D0D8003750D0BA90D0231E48E38
:103B0C00828F83123B1322E0F8A3E0F92274E812AF
:103B1C00179474E712173D851882851983EAF0A370
:103B2C00EBF08C168D17890E7431121788E0F51294
:103B3C00A3E0F5137433121788E0F514A3E0F51520
:103B4C007435121788E0F50F750800750900E50942
:103B5C0075F003A4F8A9F0851882851983123C83AB
:103B6C00E0F47003A3E0F47003023C61EE2402F570
:103B7C000CEF123C79E07003023C6185160A851744
:103B8C000B780A1219A7AC14AD15AA12AB131207B5
:103B9C00F874021217538A0A8B0BEA450B70030256
:103BAC003C61E4F510F51178101219A77406121780
:103BBC008885821085831178101219A77409121741
:103BCC008885821085831178101219A78512828539
:103BDC001383A3A3A3A31219BE7914AC0AAD0B8E45
:103BEC00828F83123C97121753E97069850A82857C
:103BFC000B83A3A3A3A3123B0F74021217881232D8
:103C0C00F0850C82850D83E0A2E05018A90E740299
:103C1C00121788AC82AD838E828F83122F7E12078F
:103C2C0050E94208850C82850D83E0A2E15026E51F
:103C3C000FF50A780A1219ABA90E7403121788AC87
:103C4C0082AD838E828F83122F7E12074A740112EB
:103C5C001753E942080509E509C394025003023BD6
:103C6C005AA90874191217537F100218663400F5FC
:103C7C000D850C82F58322E028FEA3E039FF8E82AD
:103C8C008F83227916850A82850B83122F82120864
:103C9C005274082274F2121794EAFEEBFF890B742B
:103CAC0001650B600E7402650B70637901120A6872
:103CBC00E9705BEEFAEFFB123D1D6047750A008060
:103CCC000B7C177D007900120FD8050A9002E5E0F5
:103CDC00F8E50AC3985021E50A75F017A4F8A9F085
:103CEC00850882850983A3A3E028FAA3E039FB8A1F
:103CFC00828B8312263F70C985088285098374FFE5
:103D0C00F0A3F07C187D03EEFAEFFB12086A023A7E
:103D1C002D12083A8A088B09EA45092274F2121707
:103D2C00948A088B09ECFEEDFF740E12178812337F
:103D3C00C5900BFBE0F4603D7A097B00120FEAEAB8
:103D4C004B60328A828B8374B1F0A3E4123837A3B0
:103D5C00123835A3E508F0A3E509123D84EEF0A373
:103D6C00EF123D84A3A3E50AF0A3E50BF0900BFB47
:103D7C00E0F9120FF6023A2DF08A828B83A3A3A3EB
:103D8C00A3A322C082C0839061907404F0A37448F2
:103D9C00F0A37402F09061807440F09061BC7403E5
:103DAC00F09061877419F0906265741BF090619CBF
:103DBC00740DF090619A7433F0A37455F09061A077
:103DCC00743AF090055CE064017009C2919003C6EE
:103DDC00746780059003C67461F09023B2E49390ED
:103DEC006186F09023ACE493F46027E493540FF8CD
:103DFC00906185E0686012E5C654804449F5C6E5DB
:103E0C009E547F644970F8E8F053C680E59E547F59
:103E1C0070FA7905120DA4023FA4C082C083E5A8F4
:103E2C00F853A87E906181E4F0A3F0A3F0C2BA53DA
:103E3C009AFEC289759B00C2C275E9007591007526
:103E4C00BF0075A91175B905906181F0A374C0F01C
:103E5C00A3E4F0D2BA439A0174805842A8023FA45A
:103E6C00C082C08374F812173D9003C4E0F8A3E03D
:103E7C00F9E8497003023F9A9003C4E05440602370
:103E8C007908851882851983AA82AB83120C1E854A
:103E9C001882851983AA82AB831208FA9003C4E0B6
:103EAC0054BFF0E054806010790C7A807B05120CC2
:103EBC001E9003C4E0547FF0E0A2E0503190619A70
:103ECC007433F0A37455F09061A0743AF090055CD3
:103EDC00E064017009C2919003C674678005900379
:103EEC00C67461F01209009003C4E054FEF0E05473
:103EFC0002603190619A743FF0A3745AF09061A003
:103F0C00747FF090055CE064017009D2919003C657
:103F1C00747180059003C6746AF01209009003C492
:103F2C00E054FDF0E0540460139023B0E4939061EE
:103F3C0086F01209069003C4E054FBF0E0540860CC
:103F4C00139023B1E493906186F01209069003C498
:103F5C00E054F7F0E0541060139023B2E4939061B6
:103F6C0086F01209069003C4E054EFF0E054206090
:103F7C000A1209069003C4E054DFF0A3E054016078
:103F8C000D120B4612090C9003C5E054FEF0740898
:103F9C001217538003F0A3F0D083D0820201227455
:103FAC00EC12179474F412173D851882851983ACA2
:103FBC0082AD8375838275820E7404121650902321
:103FCC00B093F46003024138907808E0C394025037
:103FDC00030241187404121788AC82AD8375838177
:103FEC0075824B7408121650851882851983858248
:103FFC00128583137404121788AC82AD83750EFF7F
:10400C00750FFF7FFF7E00750C48750D7880157459
:10401C00086E70030240AB74096E70030240AB74FF
:10402C000A6E607B850C82850D83780812160D8CC8
:10403C00828D83A909E50AC9F888107418780812CA
:10404C00154EE5104508F8C3E098A3E099850C825D
:10405C00850D83780812160D40188C828D83741888
:10406C00780812154EE5104508F8E0C398F8A3E05F
:10407C00801C7418780812154EE5104508FAE9FBF7
:10408C008C828D83E0F8A3E0F9EAC398F8EB99F9F8
:10409C00C3E8950EE9950F5006880E890FEEFF0EBA
:1040AC00E50C2404F50CE50D3400F50DEEC394136A
:1040BC00500302401B74FF650E700474FF650F60A3
:1040CC00238F087402780812172A74482508F58281
:1040DC0074783509F583780812160D8512828513CC
:1040EC0083E508F0EC24020C0CED3400FD85128203
:1040FC00851383A3858212858313740C121788E5AC
:10410C00826C7003E5836D600302400975080175CC
:10411C00090078081219A77402121788AC82AD83B3
:10412C007AEC7B081211B87402121753740C121724
:10413C00537F0C021866C082C0839061AE7468F025
:10414C00A3746AF090624574FBF0A304F053F4FD81
:10415C0043FE0290055C7401F09061A0E0643A901B
:10416C00619A70237433F0A37455F09061A0743A83
:10417C00F0740164017009C2919003C674678028C1
:10418C009003C674618021743FF0A3745AF090615F
:10419C00A0747FF0740164017009D2919003C6740D
:1041AC007180059003C6746A023FA37F04021866EF
:1041BC00C082C08390050EE06401700A900513E084
:1041CC006004790C80027900023FA4C082C0837520
:1041DC00E1F1900511E06055146008146059146009
:1041EC00518059120B58900507E0F97A087B05129B
:1041FC000D2690821612162B120D5C9081F612165B
:10420C002B120D32900512E0F9120D3E7901120DB0
:10421C0098900505E02416F8A3E03400F98882890B
:10422C00837470F0A3740BF07900023FA4120B5E40
:10423C0080B4120B6480AF120B6A80AA791280EAE8
:10424C0074F412179475D90D9004F6E0A2E0E433DF
:10425C001313F8900507E0C4333354C0484401F5F8
:10426C00D97805790588828983A3A3A3E0F5D98839
:10427C00828983A3A882A983E8640B7003E964058F
:10428C0070E378F6790488828983A3E0F5D9888273
:10429C008983A3A882A983E864FC7003E964047091
:1042AC00E575E1959004F6E0F97AF77B04120D2C94
:1042BC00900C1D740AF0A3740BF0A37466F0A37435
:1042CC000CF0A37466F0A3740CF0A37466F0A374E2
:1042DC000CF0A37410F0A3740BF0A37466F0A37429
:1042EC000CF0A37428F0A3740BF0900C2B7466F0F4
:1042FC00A3740CF0A37466F0A3740CF0A37466F0B2
:10430C00A3740CF0A37466F0A3740CF0A37466F0A1
:10431C00A3740CF0A37466F0A3740CF0900505E084
:10432C00F8A3E0F5838882A3A3780812160D908277
:10433C001A78081215999081FA78081215E79005E9
:10434C0005E0240EF8A3E03400F98882898378080C
:10435C0012161C900505E02414F8A3E03400F9882B
:10436C008289837413F09003C27402F00241B7C0C7
:10437C0082C083900517E02407F5D9900507E0C4A7
:10438C00333354C0F5D97805790588828983A3A382
:10439C00A3E0F5D988828983A3A882A983E8640B5A
:1043AC007003E9640570E3900517E0601F780579E8
:1043BC0005FAE82413F582E93400F583E0F5D98891
:1043CC00828983A3A882A9831AEA70E6900537E054
:1043DC002407F5D9900507E0C4333354C04404F5E1
:1043EC00D97805790588828983A3A3A3E0F5D988B8
:1043FC00828983A3A882A983E8640B7003E964050E
:10440C0070E3900537E0601F78057905FAE82433EE
:10441C00F582E93400F583E0F5D988828983A3A875
:10442C0082A9831AEA70E675E195900C1D7416F05A
:10443C00A3740BF0A37466F0A3740CF0A37466F071
:10444C00A3740CF0A37466F0A3740CF0A37410F0B6
:10445C00A3740BF0A37466F0A3740CF0A37428F08F
:10446C00A3740BF0900C2B7466F0A3740CF0A37473
:10447C0066F0A3740CF0A37466F0A3740CF0A37430
:10448C0066F0A3740CF0A37466F0A3740CF0A37420
:10449C0066F0A3740CF09081E612162B900505E0E3
:1044AC00240EF8A3E03400F9888289831216379021
:1044BC000505E02414F8A3E03400F988828983749C
:1044CC0012F09003C27401023FA3C082C083900516
:1044DC0017E02407F5D9900507E0C4333354C044E2
:1044EC0002F5D97805790588828983A3A3A3E0F521
:1044FC00D988828983A3A882A983E8640B7003E915
:10450C00640570E3900517E0601F78057905FAE8FB
:10451C002413F582E93400F583E0F5D98882898388
:10452C00A3A882A9831AEA70E675E195900C1D7414
:10453C0022F0A3740BF0A37422F0A3740BF0A374F9
:10454C0022F0A3740BF0A37422F0A3740BF0A374E9
:10455C0022F0A3740BF0A37422F0A3740BF0A374D9
:10456C0028F0A3740BF0900C2B7466F0A3740CF071
:10457C00A37466F0A3740CF0A37466F0A3740CF02F
:10458C00A37466F0A3740CF0A37466F0A3740CF01F
:10459C00A37466F0A3740CF09081E612162B9005B0
:1045AC0005E0240EF8A3E03400F988828983121602
:1045BC0037900505E02414F8A3E03400F9888289CB
:1045CC00837414F09003C27404023FA3C082C083AE
:1045DC00900517E02407F5D9900507E0C433335450
:1045EC00C04406F5D97805790588828983A3A3A3ED
:1045FC00E0F5D988828983A3A882A983E8640B702B
:10460C0003E9640570E3900517E0601F78057905F0
:10461C00FAE82413F582E93400F583E0F5D98882B1
:10462C008983A3A882A9831AEA70E6900537E0244F
:10463C0007F5D9900507E0C4333354C04404F5D9C9
:10464C007805790588828983A3A3A3E0F5D98882AC
:10465C008983A3A882A983E8640B7003E9640570BD
:10466C00E3900537E0601F78057905FAE82433F507
:10467C0082E93400F583E0F5D988828983A3A88286
:10468C00A9831AEA70E675E195900C1D741CF0A3D1
:10469C00740BF0A37466F0A3740CF0A37466F0A30F
:1046AC00740CF0A37466F0A3740CF0A37466F0A3FE
:1046BC00740CF0A37466F0A3740CF0A37428F0A32C
:1046CC00740BF0900C2B7466F0A3740CF0A374664E
:1046DC00F0A3740CF0A37466F0A3740CF0A37466CE
:1046EC00F0A3740CF0A37466F0A3740CF0A37466BE
:1046FC00F0A3740CF09081E612162B900505E024C3
:10470C000EF8A3E03400F9888289831216379005DD
:10471C0005E02414F8A3E03400F988828983741529
:10472C00F09003C27403023FA3C082C083900505BE
:10473C00E0F8A3E0F5838882A3A3A3A3A3A3E402D8
:10474C003FA174F71217949003F0E0F875F004A4ED
:10475C00C8AAF02AF974F228F8740339F9E8240588
:10476C00FAE93400FB8A828B83E0FCA3E0FD8882AB
:10477C008983A3A3A3A3A3A3A3A3A3ECF0A3EDF00A
:10478C0088828983A3A3A3A3A3A3A3E024FFF8A3F4
:10479C00E034FFF98A828B83E8F0A3E90249F374D1
:1047AC00F7121794EAFEEBFF9061D0E06003024829
:1047BC008875D90E75D90375D904EE248CF582EF62
:1047CC003400F583E5822408F8E5833400F9E0F53C
:1047DC00D9A3E865827003E9658370F2EE2484F551
:1047EC0082EF3400F583E5822404F8E5833400F984
:1047FC00E0F5D9A3E865827003E9658370F275E191
:10480C00957908EE248CFAEF3400FB120C12790423
:10481C00EE2484FAEF3400FB120C127C00EEF8EF5D
:10482C00F9ECFAC3E49AFA95E0FBEE2AFAEF3BFBBB
:10483C00EA248BF582EB3400F583E0C0E0E824AB8E
:10484C00F582E93400F583D0E0F00C88828983A3EB
:10485C00A882A983ECC3940840C7EE2470F582EFBC
:10486C003400F583E0F8A3E0F9EE2472F582EF341E
:10487C0000F583E8F0A3E9F07901800279000249A0
:10488C00F4C082C08375D90275D90375D90575E159
:10489C0095EA2470F582EB3400F583E0F8A3E0F997
:1048AC00EA2472F582EB3400F583E8F0A3E9F079A1
:1048BC0001023FA474F6121794EAFEEBFF90056018
:1048CC007406F075086075090578081219A77C0143
:1048DC007903120C5A740212175375D90675D90341
:1048EC00758260758305E0F5D9A3E5826465700473
:1048FC00E583640570F075E1959003C2E06408707F
:10490C001EEE2470F582EF3400F583E0F8A3E0F995
:10491C00EE2472F582EF3400F583E8F0A3E9F07928
:10492C0001024AC074F6121794EAFEEBFF9061D0B4
:10493C00E070667801900560740BF09003C2E0643F
:10494C0007701975086075090578081219A77C019C
:10495C007903120C5A74021217537805740128F556
:10496C00D975D903758260758305E8FAE0F5D9A38A
:10497C001AEA70F875E195EE2470F582EF3400F5C3
:10498C0083E0F8A3E0F9EE2472F582EF3400F583AE
:10499C00E8F0A3E9F0790180027900024AC074F7CB
:1049AC00121794EAFEEBFF75D90375D90375D90D6F
:1049BC00EE24DEF582EF3400F583E0F5D975E19550
:1049CC007904120D62EE2470F582EF3400F583E069
:1049DC00F8A3E0F9EE2472F582EF3400F583E8F0E9
:1049EC00A3E9F079018001F07F0102186674F612D8
:1049FC001794EAFEEBFF9061D0E0F87480C398FA4C
:104A0C00EE2483F582EF3400F583E06004780480B3
:104A1C00027800E8240BF8EAC3985003024ABE7DE2
:104A2C0009900560EDF0EE24E3F8EF3400F97A61BB
:104A3C007B057C0888828983E08A828B83F088825C
:104A4C008983A3A882A9838A828B83A3AA82AB833E
:104A5C001CEC70E0EE2483F582EF3400F583E0600B
:104A6C001D75086075090578081219A77C0979036A
:104A7C00EEFAEFFB120C5A74021217537D0D7401EF
:104A8C002DF5D975D9037582607583058D08E0F510
:104A9C00D9A31508E50870F675E1957904120D6235
:104AAC00EE241DF582EF3400F583E4F0A3F07901D8
:104ABC00800279007F0202186674F6121794EAFEDF
:104ACC00EBFF9061D0E0F87480C398FAEE2483F584
:104ADC0082EF3400F583E06004780480027800E80B
:104AEC002408F8EAC3985003024BC57D0690056074
:104AFC00740CF09003DFE0900561F07AE07B0378B2
:104B0C006279057C028A828B83E088828983F08AB1
:104B1C00828B83A3AA82AB8388828983A3A882A970
:104B2C00831CEC70E07AE27B037C028A828B83E04C
:104B3C0088828983F08A828B83A3AA82AB83888242
:104B4C008983A3A882A9831CEC70E0EE2483F582F0
:104B5C00EF3400F583E0601D750860750905780871
:104B6C001219A77C067903EEFAEFFB120C5A7402A9
:104B7C001217537D0A74012DF5D975D9037582600E
:104B8C007583058D08E0F5D9A31508E50870F67551
:104B9C00E1957904120D62EE2470F582EF3400F584
:104BAC0083E0F8A3E0F9EE2472F582EF3400F5838C
:104BBC00E8F0A3E9F0790180027900024AC074F6AA
:104BCC00121794EAFEEBFF9061D0E0F87480C39862
:104BDC00FAEE2483F582EF3400F583E06004780468
:104BEC0080027800E82404F8EAC3985003024CA42D
:104BFC007802900560E8F0EE24F5F582EF3400F5CC
:104C0C0083E0900561F0EE2483F582EF3400F583A8
:104C1C00E0601B75086075090578081219A77C02FD
:104C2C007903EEFA120C5A740212175378067401B7
:104C3C0028F5D975D9037582607583058808E0F568
:104C4C00D9A31508E50870F675E195EE2474F58284
:104C5C00EF3400F583E4F0EE2480F582EF3400F5B8
:104C6C0083E4F0EE241DF582EF3400F583E4F0A329
:104C7C00F07904120D62EE240DF582EF3400F58309
:104C8C00E0F8A3E0F9EE2472F582EF3400F583E846
:104C9C00F0A3E9F0790180027900024AC074F6129F
:104CAC0017949061D0E0F87480C398FCEA2483F5E3
:104CBC0082EB3400F583E06004780480027800E82D
:104CCC002404F8ECC398405B79029005607407F0FB
:104CDC00EA24F6F582EB3400F583E0900561F0EA06
:104CEC002483F582EB3400F583E060187508607559
:104CFC00090578081219A77C0209120C5A740212C1
:104D0C0017537906740129F5D975D9037582607525
:104D1C008305E9F8E0F5D9A318E870F875E1957901
:104D2C000180027900024AC074F5121794E9FCA2C2
:104D3C00AFE433F50AC2AF7D0080010DEA246FF5B4
:104D4C0082EB3400F583E0F8EDC398501A8D08EA35
:104D5C002508F8EB3400F9E8246BF582E93400F50A
:104D6C0083E06C70D68024EA246FF8EB3400F9E011
:104D7C00FEEA2EFAEB3400FBEA246BF582EB3400EE
:104D8C00F583ECF088828983E004F0E50AA2E092D6
:104D9C00AF7F0302186674F6121794A2AFE433FDCA
:104DAC00C2AFEA246FF582EB3400F583E014F07C9B
:104DBC000060368C08EA2508F8EB3400F9E8246C1E
:104DCC00F582E93400F583E0C0E0E8246BF582E974
:104DDC003400F583D0E0F00CEA246FF582EB34005C
:104DEC00F583E0F8ECC39840CAEA246EF582EB3404
:104DFC0000F58374FFF0EA246AF582EB3400F58346
:104E0C00E4F0EDA2E092AF024AC0C082C083E5A8F4
:104E1C00F8C2AFEA246BF582EB3400F583E9F0EAD3
:104E2C00246AF582EB3400F583E4F0E8A2E792AF54
:104E3C00023FA474F3121794EAFEEBFFECFAEDFBBD
:104E4C008A828B83A3A3A3A3E0541FF0EE2436F530
:104E5C0082EF3400F583E4F0F50AEEFCEFFD8A8274
:104E6C008B83E0C0E0EC245DF582ED3400F583D05B
:104E7C00E0F0750B00E50A33333354F8F50C8A82F5
:104E8C008B83E0F508750900E50B780812170BE524
:104E9C0008A2E0502FEE2436F8EF3400F98882890E
:104EAC0083E0F508EE2508F508EF3400F509E50870
:104EBC002438F582E5093400F583E50CF088828905
:104ECC0083E004F0050B050CE50BC3940840AF051B
:104EDC000A8A828B83A3AA82AB838C828D83A3AC38
:104EEC0082AD83E50AC394055003024E6A7F050226
:104EFC00186674F71217949003EEE0640170077A49
:104F0C00007B000250757E009003F4E070F1740198
:104F1C00F0A3E4F0A3F090045404F0900457E4F0F0
:104F2C00A3F090045A04F09003F7E4F0A3F0A3F07C
:104F3C00A3F090040104F0900427E4F09081DA12BD
:104F4C00162B90040A12163790040EE4F0A3F0A36B
:104F5C00F0900472F0900466F090045B7480F0A3FF
:104F6C00E4F0900461F0900459F09004DDF0A3F0AB
:104F7C00A3F0A3F0A3F0A3F0A3F0A3F09004E6F049
:104F8C00900475F09004C5F0A3F09081DA12162B02
:104F9C009004C71216379081DA12162B9004CB129C
:104FAC0016379004D1E4F09004D3F09004CFF09035
:104FBC0004E9F0A3F0A3F0A3F0A3F0A3F0A3F0A3F3
:104FCC00F078EE7903E8246FF582E93400F5837408
:104FDC00FFF00E88828983A3A882A983EEC3940470
:104FEC0040E37AEE7B0378FD790488828983E0C004
:104FFC00E0EA2461F582EB3400F583D0E0F088829E
:10500C008983A3A882A9838A828B83A3AA82AB8378
:10501C00E864027003E9640570D07AEE7B0378D5FE
:10502C00790388828983A3E0C0E0EA24E7F582EB68
:10503C003400F583D0E0F088828983A3A882A98309
:10504C008A828B83A3AA82AB83E864DD7003E96454
:10505C000370CF9003EEE004F0640170089003F647
:10506C00E09003F0F07AF27B030249F4C082C08333
:10507C009003F5E4F09003F4F09003EEF0A3F0A3AA
:10508C0074FFF075E1F1023FA4C082C0837800790F
:10509C00009003F5E0600478F2790388828983A399
:1050AC00A3A3A3E0F9023FA474F6121794EAFEEB53
:1050BC00FF8E828F83A3A3A3E0600F8E828F83A3C6
:1050CC00A3A3E4F09003EFE014F09003EEE014F0EF
:1050DC0070069003F074FFF08E828F83A3A3E4F02C
:1050EC00900502E0700D9003EFE06401700579000B
:1050FC00120D44EE2465F582EF3400F583E0F8A33D
:10510C00E0F9E8496029EE2465F8EF3400F98808E5
:10511C0089098882F583E0FCA3E0FD9003F0E0FAB6
:10512C007B00120930850882850983E4F0A3F0EE38
:10513C00FAEFFB120C8A024AC074F7121794EAFEBB
:10514C00EBFF8E828F83A3A3A3A3E0FA7B0012094B
:10515C0072EEFAEFFB120BDC120C720249F4C082F5
:10516C00C08378D5790388828983A3E4F088828907
:10517C0083A3A882A983E864DD7003E9640370E665
:10518C009003D60244D174F6121794EAFEEBFFECAE
:10519C002403F8ED3400F988088909EC2407F8EDAC
:1051AC003400F9E8FCE9FD8C828D83E0F8A3E0F98A
:1051BC00850882850983E0FAA3E0FB1216B2EE247F
:1051CC000DF582EF3400F583E8F0A3E9F08C828DC5
:1051DC0083E0F8A3E0F9850882850983E0FAA3E06F
:1051EC00FB1216B28B09EA45096013EE240DF58209
:1051FC00EF3400F583E02401F0A3E03400F0024A20
:10520C00C074F6121794EAFEEBFFEE242EF582EF33
:10521C003400F583E0FCA3E0FD780079FAECFAEDBC
:10522C00FB1216B2EE2470F582EF3400F583E8F031
:10523C00A3E9F0780079FAECFAEDFB1216B28B09BF
:10524C00EA45096013EE2470F582EF3400F583E033
:10525C002401F0A3E03400F0024AC074F012179459
:10526C00EAFEEBFF7410121788780812160D120D57
:10527C00088A0C8B0D8C0E8D0F908232780C1215C7
:10528C00999081FA780C1215E7780C1219A38E827A
:10529C008F83E0F8A3E0F5838882A3A312162B1268
:1052AC0020557404121753E960030253B48E828F95
:1052BC0083E02402F8A3E03400F9E8FAE9FB8A82DF
:1052CC008B8378081215AC9081FA780812160D8A27
:1052DC00828B8378081215FAEE240BF582EF3400DA
:1052EC00F583C082C0838E828F83A3A3A3A3A3E084
:1052FC002401F8A3E03400F9D083D082E068700375
:10530C00A3E069700579010253B68E828F83A3A343
:10531C00A3A3A3A3A3E02401F0A3E03400F0EE24A4
:10532C0074F582EF3400F583E064017036EE247579
:10533C00F582EF3400F583E0F8A3E0F98E828F83D9
:10534C00A3A3A3A3A3A3A3E0687003A3E0697013B2
:10535C00EE2475F582EF3400F583E02401F0A3E030
:10536C003400F0EE2480F582EF3400F583E0640124
:10537C007036EE2481F582EF3400F583E0F8A3E07B
:10538C00F98E828F83A3A3A3A3A3A3A3E0687003C6
:10539C00A3E0697013EE2481F582EF3400F583E00D
:1053AC002401F0A3E03400F079007F080218667441
:1053BC00F71217949003F0E0F875F004A4C8AAF063
:1053CC002AF974F228FE740339FF8028EE2465F85C
:1053DC00EF3400F988828983E0FCA3E0FD888289A0
:1053EC0083E4F0A3F08E828F83A3A3A3A3E0FA7BC4
:1053FC0000120930EE2465F582EF3400F583E0F8F5
:10540C00A3E0F9E849604FEE2464F582EF3400F52F
:10541C0083E0F50878081219ABEE2463F582EF34BB
:10542C0000F583E0F9EE2465F582EF3400F583E0B6
:10543C00FCA3E0FDEEFAEFFB120C067401121753FD
:10544C00E96089EE2465F582EF3400F583E0F8A37A
:10545C00E0F9E84970137C007D008E828F83A3A352
:10546C00A3A3E0FA7B001209300249F474F212177C
:10547C0094EAFEEBFF890A740E121788E0FAEE2408
:10548C0062F582EF3400F583E06401600302554459
:10549C009061D0E0F87480C398F50CEE2483F5820B
:1054AC00EF3400F583E0600478048002780089080A
:1054BC00E928F8E43400F9E824020808E93400F992
:1054CC00E50C98E499A2D265D0334068EA70057572
:1054DC000B028003750B01E0603975090078081226
:1054EC0019A77A607B05120C3C74021217537508CD
:1054FC006075090578081219A7AC0AA90BEEFAEF2A
:10550C00FB120C5A74021217537404250AF50A7C08
:10551C00607D057401250AF5D9850BD9E50A600D66
:10552C008C828D83F8E0F5D9A318E870F875E195B5
:10553C00790080067907800279FF7F06021866C021
:10554C0082C083E960208C828D83E08A828B83F019
:10555C008C828D83A3AC82AD838A828B83A3AA8237
:10556C00AB8319E970E0ECFAEDFB023FA474EA128C
:10557C001794907803E06442705E90055FE014F03D
:10558C007056C2AF12559300782AD0E0F618D0E0CE
:10559C00F6E59F5407F9700590824680039082428D
:1055AC00780812160DE9C4C0E07829E65508F5080C
:1055BC0008E65509F509740B780812171BD0E0257D
:1055CC0008F8906270E0A2E740F8E8C3339062728A
:1055DC00F0906270E0D2E0F09003F0E0F47003021F
:1055EC00599CE0F875F004A4C8AAF02AF974F228C2
:1055FC00FE740339FFEE2402F582EF3401F583E0EB
:10560C00F8A3E0F9E849601EEE2402F582EF3401BC
:10561C00F583E0FAA3E0FBEE2401F582EF3401F50B
:10562C0083E0F912101A8E828F83A3A3A3A3A3A3E2
:10563C00A3E0F8A3E0F98E828F83A3A3A3A3A3E82E
:10564C00F0A3E9F0906054E09003C9F0906055E04D
:10565C009003CAF0906056E09003CBF0906057E056
:10566C009003CCF0906058E09003CDF0906059E03E
:10567C009003CEF090605AE09003CFF090605BE026
:10568C009003D0F090605CE0FC9003D1F090605DF2
:10569C00E0FB9003D2F090605EE0FD9003D3F090BD
:1056AC00605FE0FA9003D4F09003CFE08C082508FB
:1056BC00F8E43400F98D08E82508F8E93400F98B92
:1056CC0008E82508F8E93400F98A08E82508FAE919
:1056DC003400FBEE24F7F582EF3400F583E02AF07A
:1056EC00A3E03BF08C08EE24F9F582EF3400F5834F
:1056FC00E02508F0A3E03400F0EE24FBF582EF3453
:10570C0000F583E02401F0A3E03400F0EE24FFF573
:10571C0082EF3400F583E0F8A3E0F9E849604290A9
:10572C006000E0C333FCE433FDE82CF582E93DF581
:10573C0083E02AF0A3E03BF0906000E0FA9003D104
:10574C00E0FCEAC333FAE433FBE82AF8E93BF9E876
:10575C00244AF582E93400F583E02CF0A3E0340010
:10576C00F09003CFE070119003D2E0700BA3E070C7
:10577C0007A3E0700302587C8E828F83A3A3A3A39C
:10578C00A3E0F8A3E0F9EE240DF582EF3400F583E5
:10579C00E028F8A3E039F9EE240BF582EF3400F59C
:1057AC0083E8F0A3E9F0EE240FF582EF3400F583E3
:1057BC00E4F0EE241CF582EF3400F583E064017014
:1057CC001EEE2420F582EF3400F583E0F8A3E0F917
:1057DC00EE241DF582EF3400F583E8F0A3E9F09098
:1057EC0003CAE06052EE241CF582EF3400F583749A
:1057FC0001F0EE246AF582EF3400F583E07038EEA8
:10580C002474F582EF3400F583E0702BEE2480F5E0
:10581C0082EF3400F583E0701EEE2420F582EF3425
:10582C0000F583E0F8A3E0F9EE241DF582EF3400D7
:10583C00F583E8F0A3E9F0906062E0700302592F61
:10584C008E828F83E0F8A3E0F9E82406FCE93400AB
:10585C00FDE82402FAE93400FB120D028E828F83DC
:10586C00E02412F8A3E03400F988828983025939C4
:10587C009003D1E0603AEE240FF582EF3400F5830B
:10588C00E4F0EE241CF582EF3400F583E064017043
:10589C0040EE2420F582EF3400F583E0F8A3E0F924
:1058AC00EE241DF582EF3400F583E8F0A3E98020A7
:1058BC00EE24FDF582EF3400F583E02401F0A3E043
:1058CC003400F0EE241DF582EF3400F583E4F0A3F0
:1058DC00F0EE240BF582EF3400F583E0F8A3E0F949
:1058EC008E828F83A3A3A3A3A3E0687003A3E069B4
:1058FC0060030257EBEE240FF582EF3400F583E0E2
:10590C0060128E828F83A3A3A3A3A3E0640570020D
:10591C00A3E0600B7908EEFAEFFB120BE2807179D1
:10592C003E80F3EE241DF582EF3400F583E4F0A302
:10593C00F0906060E0C0E0EE2469F582EF3400F591
:10594C0083D0E0F09003CFE0F8EE2467F582EF34DB
:10595C0000F583E028025A9C90055DE064017035E7
:10596C00120DB0EE2467F582EF3400F583E070067B
:10597C009060607480F0EEFAEFFB120CCCE96401DD
:10598C00600E120C00120CC6E964016003120C725A
:10599C007F0E021866EE2483F582EF3400F583E067
:1059AC006004780480027800E50CC398F91209248D
:1059BC008A0A8B0BEA450B60A7EE2483F582EF3441
:1059CC0000F583E070048A088B09E50C60128508E9
:1059DC0082850983F512E5D9F0A31512E51270F64C
:1059EC00EE2483F582EF3400F583E0603774FC25F8
:1059FC000CF50C78081219A7AC0CA90DEEFAEFFBFC
:105A0C00120C607402121753E970197403650D704F
:105A1C0003025ADCE50A24FBFAE50B34FFFB1210F7
:105A2C005C025ADC7403650D7003025AE1850C0E9E
:105A3C00750F00780E1219A7AC08AD09AA0AAB0BAA
:105A4C00120C3C7402121753EE2469F582EF3400E9
:105A5C00F583E064807004747F8001E0F5087808B9
:105A6C001219ABE50DF50878081219ABA90CAC0AA4
:105A7C00AD0B9003F0E0FA7B0012092A74021217A6
:105A8C0053120DBCEE2467F582EF3400F583E0145D
:105A9C00F0E0700302597C750860750905750A0001
:105AAC00750B00E5D914F50CE5D95403F50D602000
:105ABC007403650D70030259D6E50C70030259642A
:105ACC00EE2468F582EF3400F583E060030259643C
:105ADC00793D025922850882850983E0F8A38582E5
:105AEC0008858309603B147003025CD914700302AF
:105AFC005FCD147003025D3724FD7003025E5714F2
:105B0C007003025A8D147003025EAD24FE70030202
:105B1C005E66147003025EA8147003025F42025F9B
